:020000040800F2
:10000000080900202D02000881440008DD41000895
:100010007D44000869040008E15100080000000068
:10002000000000000000000000000000D1470008B0
:100030005506000800000000F144000829480008A7
:10004000470200084702000847020008470200086C
:10005000470200084702000847020008470200085C
:10006000470200084702000847020008470200084C
:10007000AD040008470200084702000847020008D4
:100080004702000847020008470200089D040008D4
:100090006D0400087D0400088D0400084702000874
:1000A000470200084702000847020008470200080C
:1000B00047020008470200084702000847020008FC
:1000C00047020008470200084702000847020008EC
:1000D000470200084702000847020008D151000803
:1000E00047020008470200084702000847020008CC
:1000F00047020008470200084702000847020008BC
:1001000047020008470200084702000847020008AB
:10011000470200084702000801490008470200089A
:10012000470200084702000847020008470200088B
:10013000470200084702000847020008470200087B
:10014000470200084702000847020008470200086B
:10015000470200084702000847020008470200085B
:10016000470200084702000847020008470200084B
:10017000470200084702000847020008000000008C
:10018000470200084702000800F002F800F03EF8BD
:100190000AA090E8000C82448344AAF10107DA45E2
:1001A00001D100F033F8AFF2090EBAE80F0013F0F6
:1001B000010F18BFFB1A43F001031847B463000096
:1001C000D4630000103A24BF78C878C1FAD8520727
:1001D00024BF30C830C144BF04680C6070470000C1
:1001E0000023002400250026103A28BF78C1FBD840
:1001F000520728BF30C148BF0B6070471FB506F0DB
:1002000094F900F0D5F81FBD10B510BD00F0F6F858
:100210001146FFF7F3FF05F09DFC00F014F903B45D
:10022000FFF7F2FF03BC00F017F900000948804710
:1002300009480047FEE7FEE7FEE7FEE7FEE7FEE7C8
:10024000FEE7FEE7FEE7FEE704480549054A064BE0
:1002500070470000ED4800088901000808030020ED
:1002600008090020080500200805002053EA020CB8
:1002700000F069802DE9F04B4FF00006002B1FBF06
:10028000B3FA83F503FA05F424FA05F65E4012BFCB
:100290001643B2FA82F502FA05F4C5F120051EBF35
:1002A00022FA05FC44EA0C04203556EA044C4FEAD5
:1002B000144418BF641C4FF000084FF0000990422E
:1002C00071EB030C39D3002919BFB1FA81F701FA98
:1002D00007F6B0FA80F700FA07F6C7F120071EBF4D
:1002E00020FA07FC46EA0C062037B6FBF4FCA7EB25
:1002F0000507103F07F01F0BCBF120062CFA06F67E
:100300000CFA0BFB44BFB3460026202FA4BF5E4669
:100310004FF0000B5BEA060C08BF4FF0010B19EB26
:100320000B0948EB0608ABFB027C06FB02CC0BFB7F
:1003300003CCC01B71EB0C01C1E70B4602464146E2
:100340004846BDE8F08B13B5084318BF4FF0FF30A7
:100350000146AFF30080BDE81C4070474FF000023B
:1003600000B5134694469646203922BFA0E80C50AB
:10037000A0E80C50B1F12001BFF4F7AF090728BF86
:10038000A0E80C5048BF0CC05DF804EB890028BF02
:1003900040F8042B08BF704748BF20F8022B11F02B
:1003A000804F18BF00F8012B7047704770477047A7
:1003B00070B5064C7C44064D7D4404E0204601683F
:1003C00008448047241DAC42F8D170BDD8610000BC
:1003D000DC61000010B500F009F8006810BD10B530
:1003E000044600F003F8046010BD000000487047A8
:1003F0005800002000487047580000207546FFF75D
:10040000F9FFAE4605006946534620F007008546D1
:1004100018B020B5FFF718FFBDE820404FF00006E8
:100420004FF000074FF000084FF0000BAC46ACE86F
:10043000C009ACE8C009ACE8C009ACE8C00921F0CB
:1004400007018D46704710B50446AFF30080204683
:10045000BDE81040FFF7E3BE01491820ABBEFEE740
:100460002600020070470000FFE7FEE780B540F27B
:100470002410C2F2000000F0A7FB80BD80B540F25E
:100480002410C2F2000000F09FFB80BD80B540F256
:100490002410C2F2000000F097FB80BD80B540F24E
:1004A0002410C2F2000000F08FFB80BD80B540F246
:1004B0004C10C2F2000001F019F880BD82B001902A
:1004C0000198007810384AF6AB21CAF6AA21A0FBA1
:1004D000011000090090009946F26650C0F6000035
:1004E000405C0199C8650098042807D3FFE701998B
:1004F0000868042262F30900886506E0019908682B
:1005000040F2FF3290438865FFE70198806D02B0AA
:100510007047000086B0059000208DF81300059804
:10052000806A03900598806910BBFFE703980290EA
:1005300003281BD80299DFE801F0020D0218059884
:1005400090F82F00C00720B1FFE701208DF81300BD
:10055000FFE70CE00598C06AB0F1C07F04D1FFE767
:1005600001208DF81300FFE701E000E0FFE745E020
:1005700005988069B0F5005F25D1FFE703980190E9
:1005800003281ED80199DFE801F0020602110120BC
:100590008DF8130016E0059890F82F00C00720B1E1
:1005A000FFE701208DF81300FFE70BE00598C06A14
:1005B000B0F1C07F04D1FFE701208DF81300FFE701
:1005C00000E0FFE719E003980090032804D3FFE759
:1005D0000098032804D00EE001208DF813000BE0F2
:1005E000059890F82F00C00720B1FFE701208DF893
:1005F0001300FFE700E0FFE7FFE7FFE79DF81300C8
:1006000006B0704784B00390029101920093039862
:100610000168086820F48020086000980399096840
:10062000486003988068402809D1FFE70198039942
:1006300009688860029803990968C86008E0029810
:10064000039909688860019803990968C860FFE701
:1006500004B070477047000072B6FFE7FEE7000085
:1006600084B002900191029890F820008DF8030068
:100670009DF80300012805D0FFE79DF8030002283C
:100680000AD1FFE7019A029801684869104348615E
:1006900000208DF80F0008E00299486A40F480209D
:1006A000486201208DF80F00FFE79DF80F0004B0AD
:1006B0007047000088B00690059104920393069855
:1006C00090F820008DF80700069800688068009078
:1006D0000598806808B9FFE700E0FFE79DF807008C
:1006E000012806D0FFE79DF80700022840F080802F
:1006F000FFE79DF80300400700280CD4FFE79DF8B2
:1007000003000007002806D4FFE79DF80300C00699
:10071000002864D5FFE70098C0F3016002900299B9
:1007200001208840039908600598806868B9FFE750
:1007300005980168C06840EA415006990968029A24
:1007400001EB0211C1F880010EE005994A68886842
:10075000C96840EAC200084306990968029A01EB99
:100760000211C1F88001FFE7059800690699096840
:10077000029A01EB0211C1F884010598007D01285D
:100780000CD1FFE706980068029900EB0111D1F83F
:10079000840140F48070C1F88401FFE70498406848
:1007A00006990968029A01EB0211C1F88C010498BC
:1007B000006806990968029A01EB0211C1F88801E4
:1007C00006980068029900EB0111D1F8800140F011
:1007D0000100C1F8800100208DF81F0011E006998A
:1007E000486A40F40010486201208DF81F0008E0BC
:1007F0000699486A40F48020486201208DF81F0065
:10080000FFE79DF81F0008B07047000086B0049015
:100810000391049890F820008DF803009DF80300E0
:10082000012806D0FFE79DF80300022840F0B080C1
:10083000FFE746F20040C4F2000001900199D1F8B0
:10084000000240F00100C1F800020199D1F8000255
:1008500020F47C50C1F800020398426A0199D1F853
:10086000000240EA0220C1F800020398406900F04B
:100870001F01012088400290029A0199D1F81C02C0
:100880009043C1F81C020398C069F0B9FFE7029ACF
:100890000199D1F80C029043C1F80C02039A908898
:1008A000D168526940EA0140019901EBC201C1F8E7
:1008B0004002039A10889168526940EA0140019908
:1008C00001EBC201C1F84402FFE70398C0690128A7
:1008D0001ED1FFE7029A0199D1F80C021043C1F82A
:1008E0000C02039A90881168526940EA014001990C
:1008F00001EBC201C1F84002039A908991685269E4
:1009000040EA0140019901EBC201C1F84402FFE74E
:100910000398806940B9FFE7029A0199D1F804026F
:100920009043C1F8040207E0029A0199D1F8040249
:100930001043C1F80402FFE70398006940B9FFE7DC
:10094000029A0199D1F814029043C1F8140207E009
:10095000029A0199D1F814021043C1F81402FFE77A
:100960000398006A012808D1FFE7029A0199D1F89B
:100970001C021043C1F81C02FFE70199D1F80002E4
:1009800020F00100C1F8000200208DF8170008E0F7
:100990000499486A40F48020486201208DF81700CD
:1009A000FFE79DF8170006B07047000081B0009087
:1009B00001B0704786B004900391029201930498AD
:1009C00090F820008DF803009DF80300012806D060
:1009D000FFE79DF80300022840F0E880FFE7039856
:1009E00080B9FFE704980068C068800748B9FFE74E
:1009F0000499486A40F40010486201208DF81700FD
:100A0000DDE00FE0049800680069800748B9FFE75F
:100A10000499486A40F40010486201208DF81700DC
:100A2000CDE0FFE704980068039900EB0110D0F8CF
:100A3000B00100F00400029988600298806858B9FB
:100A4000FFE704980068039900EB0110D0F8B001AB
:100A5000400D029908600AE004980068039900EBD1
:100A60000110D0F8B001C00802994860FFE704986F
:100A70000068039900EB0110D0F8B00100F002000B
:100A80000299C86004980068039900EB0110D0F83F
:100A9000B40100F00F00082804D3FFE702990820F2
:100AA00008610BE004980068039900EB0110D0F88E
:100AB000B40100F00F0002990861FFE70498006894
:100AC000039900EB0110D0F8B40180B2000A02993A
:100AD000886104980068039900EB0110D0F8B40114
:100AE000000C0299486104980068039900EB01101A
:100AF000D0F8B8010199087004980068039900EBD8
:100B00000110D0F8B801000A0199487004980068F3
:100B1000039900EB0110D0F8B801000C019988701E
:100B200004980068039900EB0110D0F8B801000E9A
:100B30000199C87004980068039900EB0110D0F87F
:100B4000BC010199087104980068039900EB011039
:100B5000D0F8BC01000A0199487104980068039913
:100B600000EB0110D0F8BC01000C019988710498C9
:100B70000068039900EB0110D0F8BC01000E019948
:100B8000C871039838B9FFE704980168C86840F055
:100B90002000C86006E004980168086940F0200061
:100BA0000861FFE700208DF8170008E00499486A03
:100BB00040F48020486201208DF81700FFE79DF87F
:100BC000170006B07047000080B58AB00990002079
:100BD0000890099800684069079009980068406883
:100BE0000690099800688068059009980068C068B8
:100BF000049009980068006903900998006880696A
:100C000002909DF81C00C007002800F09480FFE7C8
:100C10009DF81400C00758B3FFE709980168012048
:100C200088609DF814008007002804D5FFE7099824
:100C300000F0ACFB1BE09DF814004007002805D530
:100C4000FFE7089840F4006008900FE09DF814005A
:100C50000007002805D5FFE7089840F48050089069
:100C600003E0099800F08EFBFFE7FFE7FFE7FFE7EF
:100C70009DF81500C00760B3FFE7099801684FF4BD
:100C8000807088609DF815008007002804D5FFE774
:100C9000099800F083FB1BE09DF815004007002831
:100CA00005D5FFE7089840F4005008900FE09DF844
:100CB00015000007002805D5FFE7089840F480409C
:100CC000089003E0099800F065FBFFE7FFE7FFE706
:100CD000FFE79DF81600C00760B3FFE709980168B9
:100CE0004FF4803088609DF816008007002804D5F6
:100CF000FFE7099800F05AFB1BE09DF8160040073B
:100D0000002805D5FFE7089840F4004008900FE060
:100D10009DF816000007002805D5FFE7089840F465
:100D20008030089003E0099800F03CFBFFE7FFE704
:100D3000FFE7FFE7FFE79DF81C000007002810D53C
:100D4000FFE79DF81000C006002809D5FFE70898C6
:100D500040F400700890099801681020C860FFE70F
:100D6000FFE79DF81C00400700280FD5FFE79DF81E
:100D700010000007002808D5FFE70998016808203F
:100D8000C860099800F076FAFFE7FFE79DF81C00BD
:100D9000800700280BD5FFE709980068C068800726
:100DA00020B1FFE7099800F069FAFFE7FFE79DF837
:100DB0001C004006002810D5FFE79DF80C00C00677
:100DC000002809D5FFE7089840F48060089009984A
:100DD000016810200861FFE7FFE79DF81C0080060E
:100DE00000280FD5FFE79DF80C000007002808D564
:100DF000FFE70998016808200861099800F070FA77
:100E0000FFE7FFE79DF81C00C00600280BD5FFE7B1
:100E1000099800680069800720B1FFE7099800F091
:100E200063FAFFE7FFE79DF81E00800700280FD553
:100E3000FFE79DF81800C006002808D5FFE70998CD
:100E4000016810204860099800F052FAFFE7FFE7B8
:100E50009DF81E00C00778B1FFE79DF81800000755
:100E6000002808D5FFE7099801680820486009981C
:100E700000F0A0FAFFE7FFE79DF81D00000600283C
:100E800040F18D80FFE79DF818004007002840F1F1
:100E90008180FFE79DF81D00C00750B1FFE79DF876
:100EA0000800C00728B1FFE7089840F0010008904B
:100EB000FFE79DF81D00800700280BD5FFE79DF890
:100EC00008008007002805D5FFE7089840F00200D9
:100ED0000890FFE79DF81D00400700280BD5FFE7AD
:100EE0009DF808004007002805D5FFE7089840F066
:100EF00004000890FFE79DF81D000007002848D572
:100F0000FFE79DF8080010F0700F42D0FFE702984D
:100F100000F0700001460191102814D0FFE70198FD
:100F2000202815D0FFE70198302816D0FFE7019858
:100F3000402817D0FFE70198502818D0FFE7019804
:100F4000602819D01DE0089840F00800089019E0CA
:100F5000089840F01000089014E0089840F0200035
:100F600008900FE0089840F0400008900AE00898C8
:100F700040F08000089005E0089840F480700890E8
:100F800000E0FFE709980168886920F07000886137
:100F9000FFE7FFE70998016804204860FFE7089829
:100FA00048B1FFE7089A0999486A104348620998CE
:100FB000FFF7FCFCFFE70AB080BD000080B584B0FD
:100FC0000290029820B9FFE701208DF80F00E0E0C1
:100FD000029890F8200020B9FFE7029800F0DEF8B0
:100FE000FFE702980168086840F00100086000F01F
:100FF0003DFF0190FFE7029800684068C007A8B96C
:10100000FFE700F033FF0199401A0B280DD3FFE7EB
:101010000299486A40F4003048620299052081F83C
:10102000200001208DF80F00B3E0E4E7029801688A
:10103000086820F00200086000F018FF0190FFE748
:101040000298006840688007002815D5FFE700F087
:101050000DFF0199401A0B280DD3FFE70299486A4A
:1010600040F4003048620299052081F820000120F8
:101070008DF80F008DE0E3E70298007E012807D18C
:10108000FFE702980168086840F08000086006E009
:1010900002980168086820F080000860FFE7029865
:1010A000407E012807D1FFE702980168086840F0F8
:1010B0004000086006E002980168086820F04000DF
:1010C0000860FFE70298807E012807D1FFE70298B9
:1010D0000168086840F02000086006E00298016896
:1010E000086820F020000860FFE70298C07E012811
:1010F00007D1FFE702980168086820F01000086037
:1011000006E002980168086840F010000860FFE7F8
:101110000298007F012807D1FFE70298016808685C
:1011200040F00800086006E002980168086820F0B6
:1011300008000860FFE70298407F012807D1FFE719
:1011400002980168086840F00400086006E0029810
:101150000168086820F004000860FFE7029B196836
:101160005A689868D3F80CC040EA0C00D3F810C055
:1011700040EA0C005B691843013A1043C8610299C8
:1011800000204862029A012182F820108DF80F0099
:10119000FFE79DF80F0004B080BD000080B58EB061
:1011A0000D9000200C900B900A90099008900D98DB
:1011B000006846F20041C4F20001884258D1FFE7BE
:1011C000FFE70020079043F64000C4F202000168E8
:1011D00041F000710160006800F00070079007980E
:1011E000FFE7FFE70020069043F63000C4F202005C
:1011F000016841F008010160006800F008000690F5
:101200000698FFE70320089002210991002104912C
:101210000A910B9009200C9040F60040C4F20200A5
:1012200008A900F02FFC049A13200190114600F049
:10123000B5FE019800F0A8FE049A14200290114611
:1012400000F0ACFE029800F09FFE049A1520039077
:10125000114600F0A3FE039800F096FE049A1620B3
:101260000590114600F09AFE059800F08DFEFFE70C
:101270000EB080BD81B0009001B0704780B582B0E3
:1012800001900198006846F20041C4F200018842D2
:1012900023D1FFE740F22410C2F2000040F2C02246
:1012A000C2F20002009240F2B823C2F20003002111
:1012B000FFF780FB0098006840F2012188420BD1C3
:1012C000FFE740F2B800C2F2000040F2B821C2F2DB
:1012D000000104F0B1F9FFE7FFE702B080BD0000B4
:1012E00081B0009001B0704781B0009001B07047AC
:1012F00081B0009001B0704780B584B00290029830
:1013000090F8200001282FD1FFE70299022081F8F0
:10131000200002980168086820F00100086000F0D1
:10132000A5FD0190FFE7029800684068C007A8B1DA
:10133000FFE700F09BFD0199401A0B280DD3FFE752
:101340000299486A40F4003048620299052081F809
:10135000200001208DF80F000FE0E4E70299002043
:1013600048628DF80F0008E00299486A40F40020B6
:10137000486201208DF80F00FFE79DF80F0004B0D0
:1013800080BD000081B0009001B0704781B0009036
:1013900001B0704781B0009001B0704781B00090FB
:1013A00001B0704781B0009001B0704781B00090EB
:1013B00001B0704781B0009001B0704780B584B033
:1013C00002900298806D019000F050FD009002980C
:1013D00090F8350002280DD0FFE70299802048657B
:1013E000FFE70299002081F83400FFE701208DF823
:1013F0000F0055E002980168086820F016000860A8
:1014000002980168486920F0800048610298006CE9
:1014100020B9FFE70298806C38B1FFE702980168B5
:10142000086820F008000860FFE702980168086873
:1014300020F001000860FFE7029800680068C0071C
:10144000C8B1FFE700F012FD0099401A062811D339
:10145000FFE70299202048650299032081F83500B2
:10146000FFE70299002081F83400FFE703208DF8A0
:101470000F0015E0E0E70298C16D3F208840019918
:1014800088600299012081F83500FFE70299002069
:1014900081F83400FFE7FFE700208DF80F00FFE739
:1014A0009DF80F0004B080BD82B00090009890F8C5
:1014B0003500022807D0FFE7009980204865012009
:1014C0008DF807000EE00099052081F8350000989E
:1014D0000168086820F001000860FFE700208DF82F
:1014E0000700FFE79DF8070002B0704780B586B09F
:1014F00005900020039040F20000C2F20000006856
:1015000048F2B511C1F64E31A0FB0110800A0290DD
:101510000598806D019001980068049004980599E1
:10152000C96DC840000700281AD5FFE70598006874
:1015300000684007002812D5FFE705980168086891
:1015400020F0040008600598C16D082088400199CA
:1015500088600599486D40F001004865FFE7FFE7A6
:1015600004980599C96DC840C007A0B1FFE7059868
:1015700000684069000600280CD5FFE70598C16D9A
:1015800001208840019988600599486D40F002006B
:101590004865FFE7FFE704980599C96DC840400713
:1015A000002814D5FFE70598006800688007002828
:1015B0000CD5FFE70598C16D04208840019988602B
:1015C0000599486D40F004004865FFE7FFE704987F
:1015D0000599C96DC840C006002847D5FFE70598A2
:1015E00000680068000700283FD5FFE70598C16D37
:1015F00010208840019988600598006800684003C1
:1016000000281AD5FFE70598006800680003002845
:1016100009D4FFE70598006C20B1FFE70598016C3D
:101620008847FFE708E00598806C20B1FFE7059840
:10163000816C8847FFE7FFE716E0059800680068BF
:10164000C005002807D4FFE705980168086820F066
:1016500008000860FFE70598006C20B1FFE70598D7
:10166000016C8847FFE7FFE7FFE7FFE7049805996C
:10167000C96DC8408006002840F18D80FFE70598BD
:1016800000680068C006002840F18480FFE70598E4
:10169000C16D2020884001998860059890F8350038
:1016A000052834D1FFE705980168086820F0160086
:1016B000086005980168486920F080004861059835
:1016C000006C20B9FFE70598806C38B1FFE70598FA
:1016D0000168086820F008000860FFE70598C16D00
:1016E0003F208840019988600599012081F83500E4
:1016F000FFE70599002081F83400FFE70598006DA9
:1017000020B1FFE70598016D8847FFE77BE005986A
:1017100000680068400300281AD5FFE705980068B4
:1017200000680003002809D4FFE70598406C20B149
:10173000FFE70598416C8847FFE708E00598C06B14
:1017400020B1FFE70598C16B8847FFE7FFE720E07E
:10175000059800680068C005002811D4FFE70598C7
:101760000168086820F0100008600599012081F8E0
:101770003500FFE70599002081F83400FFE7FFE717
:101780000598C06B20B1FFE70598C16B8847FFE75C
:10179000FFE7FFE7FFE70598406DA0B3FFE7059877
:1017A000406DC00730B3FFE70599052081F835008B
:1017B00005980168086820F001000860FFE70398B9
:1017C000013003900299884201D9FFE707E0FFE763
:1017D000059800680068C0070028F0D1FFE7059968
:1017E000012081F83500FFE70599002081F83400D9
:1017F000FFE7FFE70598C06C20B1FFE70598C16CD3
:101800008847FFE7FFE706B080BD000080B586B0DF
:1018100004900020039000F029FB0290049820B966
:10182000FFE701208DF81700A3E00498406A08B193
:10183000FFE7FFE70499022081F83500FFE70499EC
:10184000002081F83400FFE704980168086820F060
:1018500001000860FFE7049800680068C00790B1C5
:10186000FFE700F003FB0299401A06280AD3FFE7BE
:101870000499202048650499032081F835008DF8EB
:10188000170076E0E7E70498006800680390039883
:1018900048F23F01CFF210010840039004990091F3
:1018A0004868D1F808C0CB680A6940EA0C001843C0
:1018B00010434A6910438A691043CA691043096A90
:1018C00001430398084303900498406A042808D110
:1018D000FFE70499C86A096B014303980843039022
:1018E000FFE7039804990968086004980068406954
:1018F0000390039820F0070003900498416A03982E
:10190000084303900498406A04281AD1FFE704981A
:10191000816A0398084303900498C06A80B1FFE786
:101920000498FEF7F7FD50B1FFE7049940204865A1
:101930000499012081F835008DF8170019E0FFE7C0
:10194000FFE703980499096848610498FEF7B6FD1B
:1019500001900498C16D3F208840019988600499E6
:1019600000204865049A012182F835108DF817008F
:10197000FFE79DF8170006B080BD000080B588B075
:10198000069005910492039300208DF80B000698B1
:10199000806D0190FFE7069890F83400012804D18B
:1019A000FFE702208DF81F0045E00699012081F82D
:1019B0003400FFE7FFE7069890F8350001282BD1A7
:1019C000FFE70699022081F8350006990020486556
:1019D00006980599049A039BFEF714FE0698C16DBC
:1019E0003F2088400199886006980168086840F0A7
:1019F000160008600698006C38B1FFE70698016889
:101A0000086840F008000860FFE706980168086869
:101A100040F00100086009E0FFE70699002081F826
:101A20003400FFE702208DF80B00FFE79DF80B0064
:101A30008DF81F00FFE79DF81F0008B080BD000073
:101A400080B584B0039000F011FA029003980190E1
:101A50000198013048B1FFE740F24C00C2F20000AB
:101A60000178019808440190FFE7FFE700F0FEF9D4
:101A70000299401A0199884201D2FFE7F6E704B0C3
:101A800080BD00008EB00D900C9100200A9009904E
:101A900008900B90FFE70B980F2800F2CC81FFE72E
:101AA0000B99012088400A900C9800680A99084018
:101AB000099009980A99884240F0B881FFE70C988C
:101AC000406800F00300012807D0FFE70C98406849
:101AD00000F0030002282FD1FFE70D9880680890DE
:101AE0000B984100032000FA01F108988843089000
:101AF0000C98C0680B99490000FA01F10898084356
:101B0000089008980D9988600D98406808900B9986
:101B1000012000FA01F10898884308900C98406869
:101B2000C0F300100B9900FA01F1089808430890DF
:101B300008980D994860FFE70C98406800F0030092
:101B4000032818D0FFE70D98C06808900B98410053
:101B5000032000FA01F10898884308900C988068E7
:101B60000B99490000FA01F1089808430890089879
:101B70000D99C860FFE70C98406800F00300022848
:101B800026D1FFE70D980B996FF0030202EA51018D
:101B90000844006A08900B9800F0070081000F20AD
:101BA00000FA01F10898884308900C9800690B9995
:101BB00001F00701890000FA01F108980843089034
:101BC00008980D990B9B02EA530211440862FFE743
:101BD0000D98006808900B984100032000FA01F16D
:101BE0000898884308900C98406800F003000B990F
:101BF000490000FA01F108980843089008980D99E7
:101C000008600C9880798007002800F00E81FFE7BB
:101C1000FFE70020079043F64400C4F20200016889
:101C200041F480410160006800F48040079007980B
:101C3000FFE70B9820F0030043F60801C4F201010E
:101C4000405808900B9800F0030081000F2000FA24
:101C500001F10898884308900D980021C4F2020110
:101C6000884203D1FFE7002006905EE00D9840F225
:101C70000041C4F20201884203D1FFE70120059030
:101C800050E00D9840F60001C4F20201884203D1F1
:101C9000FFE70220049042E00D9840F60041C4F2B4
:101CA0000201884203D1FFE70320039034E00D983E
:101CB00041F20001C4F20201884203D1FFE704208F
:101CC000029026E00D9841F20041C4F202018842E0
:101CD00003D1FFE70520019018E00D9841F60001BF
:101CE000C4F20201884203D1FFE7062000900AE017
:101CF0000D9941F60042C4F202020820914208BF49
:101D000007200090FFE700980190FFE701980290FC
:101D1000FFE702980390FFE703980490FFE7049819
:101D20000590FFE705980690FFE70698C0B20B996B
:101D300001F00301890000FA01F1089808430890B6
:101D400008980B9921F0030143F60802C4F201023E
:101D5000885043F60840C4F20100006808900999D1
:101D60000898884308900C988079C006002805D50B
:101D7000FFE70999089808430890FFE7089843F699
:101D80000841C4F20101086043F60C40C4F20100AE
:101D90000068089009990898884308900C98807901
:101DA0008006002805D5FFE70999089808430890A0
:101DB000FFE7089843F60C41C4F20101086043F6BE
:101DC0000440C4F20100006808900999089888430B
:101DD00008900C9880798007002805D5FFE70999BD
:101DE000089808430890FFE7089843F60441C4F2B6
:101DF0000101086043F60040C4F201000068089049
:101E000009990898884308900C988079C00728B1F0
:101E1000FFE70999089808430890FFE7089843F6F8
:101E20000041C4F201010860FFE7FFE7FFE70B98FC
:101E300001300B902FE60EB07047000082B0019089
:101E4000ADF802108DF801209DF8010028B1FFE7E0
:101E5000BDF802000199886105E0BDF802000004A8
:101E600001998861FFE702B07047000040F200303E
:101E7000C2F200000068704740F24C00C2F200005D
:101E8000027840F20031C2F2000108681044086094
:101E90007047000080B543F60041C4F202010868B3
:101EA00040F400700860086840F4806008600868CA
:101EB00040F480700860032000F08AF80F2000F0E2
:101EC00005F800F03BF8002080BD000080B582B02E
:101ED000009040F20000C2F20000006840F24C01A5
:101EE000C2F200010A784FF47A71B1FBF2F1B0FB53
:101EF000F1F001F0EBFA20B1FFE701208DF80700C7
:101F000018E000980F280DD8FFE700994FF0FF3038
:101F1000002200F043F8009840F25001C2F20001A4
:101F2000086003E001208DF8070003E000208DF831
:101F30000700FFE79DF8070002B080BD82B0FFE711
:101F40000020019043F64400C4F20200016841F40D
:101F500080410160006800F4804001900198FFE733
:101F6000FFE70020009043F64000C4F20200016841
:101F700041F080510160006800F0805000900098AE
:101F8000FFE702B07047000080B582B08DF807000F
:101F90009DF9070003F0E0FC02B080BD80B586B07B
:101FA0008DF81700049103920020029003F0ECFCDE
:101FB00002909DF91700019002980499039A02F08B
:101FC00061FA0146019803F0E7FC06B080BD00000D
:101FD00080B582B00190019803F000FD02B080BD91
:101FE00080B584B002900191029820B9FFE70120EA
:101FF0008DF80F0021E1019843F60041C4F202017F
:10200000096801F00701884212D9FFE7019943F6F8
:102010000040C4F202000170006800F0070001995E
:10202000884204D0FFE701208DF80F0005E1FFE7AB
:1020300002980078800700282AD5FFE702980078E8
:102040004007002809D5FFE743F60801C4F2020162
:10205000086840F4E0500860FFE702980078000745
:10206000002809D5FFE743F60801C4F20201086819
:1020700040F460400860FFE743F60801C4F2020143
:10208000086820F0F000029A926810430860FFE7A9
:1020900002980078C00700286ED0FFE702984068D9
:1020A000012811D1FFE743F60000C4F202000068E6
:1020B00000F400310020B0EB514F04D1FFE70120C4
:1020C0008DF80F00B9E02CE002984068022805D096
:1020D000FFE702984068032811D1FFE743F60000AC
:1020E000C4F20200006800F000710020B0EB516FF4
:1020F00004D1FFE701208DF80F009EE010E043F6C9
:102100000000C4F20200006800F002010020B0EB01
:10211000510F04D1FFE701208DF80F008DE0FFE79C
:10212000FFE743F60801C4F20201086820F003004B
:10213000029A526810430860FFF798FE0090FFE78C
:1021400043F60800C4F20200006800F00C00029997
:102150004968B0EB810F0ED0FFE7FFF787FE0099CB
:10216000401A41F28931884204D3FFE703208DF8F9
:102170000F0062E0E4E7FFE7019843F60041C4F294
:102180000201096801F00701884212D2FFE70199B4
:1021900043F60040C4F202000170006800F007003E
:1021A0000199884204D0FFE701208DF80F0044E038
:1021B000FFE702980078400700280CD5FFE743F6B8
:1021C0000801C4F20201086820F4E050029AD268C3
:1021D00010430860FFE702980078000700280DD53B
:1021E000FFE743F60801C4F20201086820F46040EA
:1021F000029A126940EAC2000860FFE700F04CF85A
:1022000043F60801C4F202010968C9B20A0946F29C
:102210004E51C0F60001895CC84040F20001C2F294
:102220000001086040F25000C2F200000068FFF7B1
:102230004DFE00208DF80F00FFE79DF80F0004B061
:1022400080BD000040F20000C2F20000006870474C
:1022500080B5FFF7F7FF43F60801C4F202010968F1
:10226000C1F3822246F25E51C0F60001895CC8408B
:1022700080BD000080B5FFF7E5FF43F60801C4F21A
:102280000201096889B24A0B46F25E51C0F60001AC
:10229000895CC84080BD000080B586B000200590F4
:1022A00004900390029043F60800C4F20200006814
:1022B00000F00C000146019140B1FFE701980428AD
:1022C0000AD0FFE7019808280CD04FE042F2004006
:1022D000C0F2F40002904FE041F60030C0F2B700C7
:1022E000029049E043F60400C4F20200016801F0E4
:1022F0003F01059100684002002813D5FFE743F62F
:102300000400C4F202000068C0F3881041F60031F6
:10231000C0F2B701A0FB0101059A0023FDF7A6FF5B
:10232000049012E043F60400C4F202000068C0F317
:10233000881042F20041C0F2F401A0FB0101059AAD
:102340000023FDF793FF0490FFE743F60400C4F277
:102350000200006800F44031022000EBD13003900D
:1023600004980399B0FBF1F0029005E042F20040BE
:10237000C0F2F4000290FFE7029806B080BD0000B2
:1023800080B586B00490049820B9FFE701208DF84D
:10239000170050E304980078C007002800F0A580DB
:1023A000FFE743F60800C4F20200006800F00C00EA
:1023B000042813D0FFE743F60800C4F202000068C7
:1023C00000F00C0008281ED1FFE743F60400C4F219
:1023D000020000684002002815D5FFE743F6000020
:1023E000C4F20200006800F400310020B0EB514F4D
:1023F00008D0FFE70498406820B9FFE701208DF876
:10240000170018E370E0FFE704984068B0F5803FDC
:1024100009D1FFE743F60001C4F20201086840F465
:102420008030086020E004984068B0F5A02F0DD1FE
:10243000FFE743F60001C4F20201086840F480207F
:102440000860086840F4803008600CE043F6000142
:10245000C4F20201086820F480300860086820F4A3
:1024600080200860FFE7FFE7FFE704984068E8B1D5
:10247000FFE7FFF7FBFC0390FFE743F60000C4F221
:102480000200006800F400310020B0EB514F0CD185
:10249000FFE7FFF7EBFC0399401A652804D3FFE739
:1024A00003208DF81700C6E2E7E71CE0FFF7DEFC2B
:1024B0000390FFE743F60000C4F20200006800F456
:1024C00000310020B0EB514F0CD0FFE7FFF7CEFCFE
:1024D0000399401A652804D3FFE703208DF81700FD
:1024E000A9E2E7E7FFE7FFE7FFE704980078800746
:1024F000002840F19680FFE743F60800C4F202008E
:10250000006810F00C0F13D0FFE743F60800C4F288
:102510000200006800F00C0008282CD1FFE743F609
:102520000400C4F2020000684002002823D4FFE740
:1025300043F60000C4F20200006800F0020100202F
:10254000B0EB510F09D0FFE70498C068012804D010
:10255000FFE701208DF817006DE243F60001C4F299
:102560000201086820F0F800049A126940EAC200EB
:102570000860FFE754E00498C06870B3FFE70021EB
:10258000C4F2472101200860FFF770FC0390FFE7C9
:1025900043F60000C4F20200006800F002010020CF
:1025A000B0EB510F0CD1FFE7FFF760FC0399401A25
:1025B000032804D3FFE703208DF817003BE2E7E789
:1025C00043F60001C4F20201086820F0F800049A02
:1025D000126940EAC200086021E00021C4F24721EC
:1025E00000200860FFF742FC0390FFE743F600007D
:1025F000C4F20200006800F002010020B0EB510FAD
:102600000CD0FFE7FFF732FC0399401A032804D3EC
:10261000FFE703208DF817000DE2E7E7FFE7FFE78C
:10262000FFE704980078000700284BD5FFE70498DF
:10263000406918B3FFE740F68061C4F247210120EA
:102640000860FFF713FC0390FFE743F67400C4F241
:102650000200006800F002010020B0EB510F0CD125
:10266000FFE7FFF703FC0399401A032804D3FFE7B1
:1026700003208DF81700DEE1E7E722E040F68061F5
:10268000C4F2472100200860FFF7F0FB0390FFE74A
:1026900043F67400C4F20200006800F0020100205A
:1026A000B0EB510F0CD0FFE7FFF7E0FB0399401AA6
:1026B000032804D3FFE703208DF81700BBE1E7E709
:1026C000FFE7FFE7049800784007002840F1CE803C
:1026D000FFE700208DF8070043F64000C4F2020037
:1026E0000068C000002815D4FFE7FFE70020009035
:1026F00043F64000C4F20200016841F080510160DD
:10270000006800F0805000900098FFE701208DF8ED
:102710000700FFE747F20000C4F200000068C005B0
:10272000002822D4FFE747F20001C4F20001086844
:1027300040F480700860FFF799FB0390FFE747F2D1
:102740000000C4F200000068C00500280CD4FFE7B8
:10275000FFF78CFB0399401A032804D3FFE70320FB
:102760008DF8170067E1EAE7FFE7FFE70498806864
:10277000012809D1FFE743F67001C4F2020108689D
:1027800040F0010008601FE00498806805280DD122
:10279000FFE743F67001C4F20201086840F004004C
:1027A0000860086840F0010008600CE043F6700122
:1027B000C4F20201086820F001000860086820F0F7
:1027C00004000860FFE7FFE7FFE704988068F8B1BE
:1027D000FFE7FFF74BFB0390FFE743F67000C4F2FF
:1027E0000200006800F002010020B0EB510F0ED192
:1027F000FFE7FFF73BFB0399401A41F2893188421A
:1028000004D3FFE703208DF8170014E1E5E71EE08D
:10281000FFF72CFB0390FFE743F67000C4F20200C1
:10282000006800F002010020B0EB510F0ED0FFE76E
:10283000FFF71CFB0399401A41F28931884204D307
:10284000FFE703208DF81700F5E0E5E7FFE79DF8C7
:102850000700012809D1FFE743F64001C4F2020155
:10286000086820F080500860FFE7FFE7049880695F
:10287000002800F0DC80FFE743F60800C4F2020005
:10288000006800F00C00082800F08580FFE704983D
:10289000806902285CD1FFE76021C4F24721002053
:1028A0000860FFF7E3FA0390FFE743F60000C4F285
:1028B0000200006800F000710020B0EB516F0CD0F6
:1028C000FFE7FFF7D3FA0399401A032804D3FFE781
:1028D00003208DF81700AEE0E7E70499C869D1F846
:1028E00020C04B6A8A6A40EA0C0040EA8310D20397
:1028F0004FF6FF739A43A2F580321043C96A40EA4B
:10290000016043F60401C4F2020108606021C4F2D0
:10291000472101200860FFF7A9FA0390FFE743F67B
:102920000000C4F20200006800F000710020B0EB6B
:10293000516F0CD1FFE7FFF799FA0399401A03286A
:1029400004D3FFE703208DF8170074E0E7E721E0E8
:102950006021C4F2472100200860FFF787FA039046
:10296000FFE743F60000C4F20200006800F00071C7
:102970000020B0EB516F0CD0FFE7FFF777FA039917
:10298000401A032804D3FFE703208DF8170052E014
:10299000E7E7FFE74AE004988069012804D1FFE7F0
:1029A00001208DF8170046E043F60400C4F202004F
:1029B0000068029004988069012831D0FFE70298EE
:1029C00000F480000499C969884229D1FFE7029880
:1029D00000F03F000499096A884221D1FFE702987C
:1029E00047F6C07108400499496AB0EB811F17D1BE
:1029F000FFE7029800F440300499896AC9034FF652
:102A0000FF729143A1F58031884209D1FFE7029816
:102A100000F070600499C96AB0EB016F04D0FFE761
:102A200001208DF8170006E0FFE7FFE7FFE7002031
:102A30008DF81700FFE79DF8170006B080BD000075
:102A400081B00090009890F8510001B070470000EC
:102A500080B584B00290029820B9FFE701208DF87C
:102A60000F0071E00298406A60B9FFE70298406881
:102A7000B0F5827F01D1FFE703E002990020C86131
:102A8000FFE705E002990020086102994861FFE72D
:102A9000029900208862029890F8510040B9FFE73F
:102AA0000299002081F85000029800F051F8FFE7E9
:102AB0000299022081F8510002980168086820F00C
:102AC00040000860029A019211685068D2F808C06C
:102AD000D36800F482700CF4044C604403F4006387
:102AE0001844136903F002031844536903F0010307
:102AF0001844936903F400731844D36903F038034E
:102B00001844136A03F080031843926A02F40052D7
:102B100010430860029A508B00F004001168526A5A
:102B200002F010021044486002980168C86920F45D
:102B30000060C861029900204865029A012182F86C
:102B400051108DF80F00FFE79DF80F0004B080BD15
:102B500080B58EB00D9000200C900B900A900990DB
:102B600008900D98006843F20001C4F20101884208
:102B70005ED1FFE7FFE70020079043F64400C4F270
:102B80000200016841F480510160006800F4805047
:102B900007900798FFE7FFE70020069043F6300014
:102BA000C4F20200016841F002010160006800F017
:102BB000020006900698FFE7FFE70020059043F625
:102BC0003000C4F20200016841F0010101600068B8
:102BD00000F0010005900598FFE7182008900220FA
:102BE00000900990002001900A90032002900B9021
:102BF000052003900C9040F20040C4F2020008A9A6
:102C00000491FEF73FFFDDF800C0019B029A039894
:102C100004994FF0800ECDF820E0CDF824C00A933F
:102C20000B920C900020C4F20200FEF72BFFFFE78E
:102C30000EB080BD80B588B006900591ADF8122029
:102C40000393069890F85100012804D0FFE7022072
:102C50008DF81F0011E1059820B1FFE7BDF81200C3
:102C600020B9FFE701208DF81F0006E106984068B3
:102C7000B0F5827F16D1FFE70698806890B9FFE72C
:102C80000699042081F851000698059ABDF8123083
:102C90000399EC46CCF80010114600F045FA8DF887
:102CA0001F00EAE0FFF7E2F80290FFE7069890F8CD
:102CB0005000012804D1FFE702208DF81F00DCE05E
:102CC0000699012081F85000FFE7FFE706990420EC
:102CD00081F851000699002048650599069A91638C
:102CE000BDF81210069A9187BDF81210069AD18786
:102CF00006990863069988860699C8860699086425
:102D00000699486406988068B0F5004F0DD1FFE73A
:102D100006980168086820F040000860069801687D
:102D2000086820F480400860FFE7069800680068A3
:102D300000F04000402807D0FFE7069801680868C7
:102D400040F040000860FFE70698C068D0BBFFE78E
:102D5000FFE70698C08FA0B3FFE706980068806879
:102D6000C00778B1FFE706980068007B0699896B79
:102D700008700699886B013088630699C88F0138FE
:102D8000C8871DE0FFF772F80299401A039988423C
:102D900004D3FFE70398013018B9FFE7039870B92F
:102DA000FFE70699012081F85100FFE7069900200E
:102DB00081F85000FFE703208DF81F005DE0FFE77A
:102DC000C7E739E0FFE70698C08FA0B3FFE7069892
:102DD00000688068C00778B1FFE706980068C0689F
:102DE0000699896B08800699886B0230886306997A
:102DF000C88F0138C8871DE0FFF738F80299401ADC
:102E00000399884204D3FFE70398013018B9FFE71C
:102E1000039870B9FFE70699012081F85100FFE798
:102E20000699002081F85000FFE703208DF81F006D
:102E300023E0FFE7C7E7FFE706980399029A01F04E
:102E400059FB20B1FFE7069920204865FFE7069966
:102E5000012081F85100FFE70699002081F8500019
:102E6000FFE70698406D20B1FFE701208DF81F00B5
:102E700003E000208DF81F00FFE79DF81F0008B059
:102E800080BD000080B588B006900591ADF8122095
:102E90000393FEF7EBFF0290BDF81200ADF80600B9
:102EA000069890F85100012804D0FFE702208DF821
:102EB0001F0034E1059820B1FFE7BDF8120020B9EA
:102EC000FFE701208DF81F0029E1FFE7069890F841
:102ED0005000012804D1FFE702208DF81F001EE1F9
:102EE0000699012081F85000FFE7FFE706990320CB
:102EF00081F851000699002048650599069A1163EA
:102F0000BDF81210069A9186BDF81210069AD18665
:102F100006998863069988870699C8870699486440
:102F20000699086406988068B0F5004F0DD1FFE758
:102F300006980168086820F040000860069801685B
:102F4000086840F480400860FFE706980068006861
:102F500000F04000402807D0FFE7069801680868A5
:102F600040F040000860FFE70698C068B0F5006FC9
:102F700051D1FFE70698406828B1FFE7BDF8060089
:102F800001280ED1FFE706980168006B0088C86031
:102F90000699086B023008630699C88E0138C88606
:102FA000FFE7FFE70698C08EA0B3FFE7069800682A
:102FB0008068800700280ED5FFE706980168006B3F
:102FC0000088C8600699086B023008630699C88EAD
:102FD0000138C8861DE0FEF749FF0299401A03999F
:102FE000884204D3FFE70398013018B9FFE703983C
:102FF00070B9FFE70699012081F85100FFE70699B3
:10300000002081F85000FFE703208DF81F0086E0C4
:10301000FFE7C7E750E00698406828B1FFE7BDF832
:10302000060001280ED1FFE706980168006B0078C2
:1030300008730699086B013008630699C88E013839
:10304000C886FFE7FFE70698C08EA0B3FFE70698A3
:1030500000688068800700280ED5FFE706980168A1
:10306000006B007808730699086B013008630699B5
:10307000C88E0138C8861DE0FEF7F8FE0299401A96
:103080000399884204D3FFE70398013018B9FFE79A
:10309000039870B9FFE70699012081F85100FFE716
:1030A0000699002081F85000FFE703208DF81F00EB
:1030B00035E0FFE7C7E7FFE706980399029A01F0BA
:1030C0008BFA20B1FFE7069920204865FFE70698B4
:1030D000806870B9FFE7FFE700200090069800685D
:1030E000C068009006980068806800900098FFE72C
:1030F000FFE70699012081F85100FFE706990020BB
:1031000081F85000FFE70698406D20B1FFE70120ED
:103110008DF81F0003E000208DF81F00FFE79DF8E9
:103120001F0008B080BD000080B58CB0DDF838C04D
:103130000A9009910892ADF81E3001200390FEF725
:1031400095FE04900A9890F851008DF817000A989F
:1031500040680690BDF81E00ADF81C009DF81700F1
:10316000012812D0FFE70698B0F5827F09D1FFE76A
:103170000A98806828B9FFE79DF81700042804D052
:10318000FFE702208DF82F009BE1099838B1FFE797
:10319000089820B1FFE7BDF81E0020B9FFE7012025
:1031A0008DF82F008DE1FFE70A9890F85000012874
:1031B00004D1FFE702208DF82F0082E10A99012057
:1031C00081F85000FFE7FFE70A9890F851000428C3
:1031D00005D0FFE70A99052081F85100FFE70A9919
:1031E0000020486508990A9A9163BDF81E100A9A52
:1031F000D187BDF81E100A9A918709990A9A11631E
:10320000BDF81E100A9AD186BDF81E100A9A918642
:103210000A9908640A9948640A980068006800F0EE
:103220004000402807D0FFE70A980168086840F08E
:1032300040000860FFE70A98C068B0F5006F40F0F2
:103240008180FFE70A98406828B1FFE7BDF81C00BD
:1032500001280ED1FFE70A980168006B0088C8605A
:103260000A99086B023008630A99C88E0138C8862B
:10327000FFE7FFE70A98C18E0120019039B9FFE707
:103280000A98C08F002818BF01200190FFE701981D
:10329000C007002855D0FFE70A98006880688007BB
:1032A000002818D5FFE70A98C08EA0B1FFE7039861
:1032B000012810D1FFE70A980168006B0088C860F8
:1032C0000A99086B023008630A99C88E0138C886CB
:1032D00000200390FFE70A9800688068C007A8B143
:1032E000FFE70A98C08F88B1FFE70A980068C068B6
:1032F0000A99896B08800A99886B023088630A9959
:10330000C88F0138C88701200390FFE7FEF7AEFDA4
:103310000499401A0E99884212D3FFE70E980130A3
:1033200070B1FFE70A99012081F85100FFE70A997F
:10333000002081F85000FFE703208DF82F00C0E047
:1033400098E782E00A98406828B1FFE7BDF81C00C2
:1033500001280ED1FFE70A980168006B0078087316
:103360000A99086B013008630A99C88E0138C8862B
:10337000FFE7FFE70A98C18E0120009039B9FFE707
:103380000A98C08F002818BF01200090FFE700981E
:10339000C007002858D0FFE70A98006880688007B7
:1033A000002818D5FFE70A98C08EA0B1FFE7039860
:1033B000012810D1FFE70A980168006B00780873B4
:1033C0000A99086B013008630A99C88E0138C886CB
:1033D00000200390FFE70A9800688068C007A8B142
:1033E000FFE70A98C08F88B1FFE70A980068C068B5
:1033F0000A99896B08700A99886B013088630A9969
:10340000C88F0138C88701200390FFE7FEF72EFD23
:103410000499401A0E99884204D3FFE70E980130B0
:1034200018B9FFE70E9870B9FFE70A99012081F8F3
:103430005100FFE70A99002081F85000FFE70320C0
:103440008DF82F003DE095E7FFE70A980E99049A62
:1034500001F0C2F868B1FFE70A9920204865FFE74C
:103460000A99002081F85000FFE701208DF82F0015
:1034700027E00A98806870B9FFE7FFE70020029014
:103480000A980068C06802900A98006880680290F4
:103490000298FFE7FFE70A99012081F85100FFE752
:1034A0000A99002081F85000FFE70A98406D20B18A
:1034B000FFE701208DF82F0003E000208DF82F009A
:1034C000FFE79DF82F000CB080BD000080B582B0F2
:1034D0000190019801F07EF902B080BD81B00090AA
:1034E00001B0704781B0009001B0704785B0039083
:1034F0000291FFE7039890F83C00012804D1FFE710
:1035000002208DF813007EE00399012081F83C0031
:10351000FFE7FFE70399022081F83D000398006868
:10352000406801900398006880680090019820F03E
:103530007000019002980168019808430190019879
:10354000039909684860039800680021C4F20101EA
:1035500088423CD0FFE703980068B0F1804F36D036
:10356000FFE70398006840F20041C4F2000188427E
:103570002DD0FFE70398006840F60001C4F2000177
:10358000884224D0FFE70398006840F60041C4F267
:10359000000188421BD0FFE70398006840F2004119
:1035A000C4F20101884212D0FFE70398006844F298
:1035B0000001C4F20101884209D0FFE703980068C6
:1035C00041F60001C4F2000188420ED1FFE70098E5
:1035D00020F0800000900298416800980843009015
:1035E0000098039909688860FFE70399012081F832
:1035F0003D00FFE70399002081F83C00FFE7002031
:103600008DF81300FFE79DF8130005B07047000028
:1036100080B582B00090009820B9FFE701208DF8B6
:1036200007003FE0009890F83D0040B9FFE700999F
:10363000002081F83C00009800F038F8FFE700997E
:10364000022081F83D00009951F8040B01F060F967
:103650000099012081F84600FFE70099012081F8D8
:103660003E00009981F83F00009981F840000099E0
:1036700081F84100FFE7FFE70099012081F842004F
:10368000009981F84300009981F84400009981F87D
:103690004500FFE70099012081F83D0000208DF8EA
:1036A0000700FFE79DF8070002B080BD80B584B039
:1036B00003900398006841F20001C4F200018842BF
:1036C0001BD1FFE7FFE70020029043F64000C4F261
:1036D0000200016841F010010160006800F0100074
:1036E00002900298FFE73620019000221146FEF773
:1036F00055FC0198FEF748FCFFE704B080BD0000D0
:1037000083B00190019890F83D00012804D0FFE7B4
:1037100001208DF80B006AE00199022081F83D003C
:1037200001980168C86840F00100C860019800680D
:103730000021C4F2010188423CD0FFE701980068F3
:10374000B0F1804F36D0FFE70198006840F20041A9
:10375000C4F2000188422DD0FFE70198006840F6CE
:103760000001C4F20001884224D0FFE701980068FC
:1037700040F60041C4F2000188421BD0FFE70198E7
:10378000006840F20041C4F20101884212D0FFE714
:103790000198006844F20001C4F20101884209D096
:1037A000FFE70198006841F60001C4F20001884279
:1037B00012D1FFE701980068806800F007000090D0
:1037C0000098062807D0FFE701980168086840F0D4
:1037D00001000860FFE706E001980168086840F012
:1037E00001000860FFE700208DF80B00FFE79DF85F
:1037F0000B0003B07047000081B0009001B070472B
:1038000080B584B0039003980068C0680290039864
:103810000068006901909DF804008007002824D505
:10382000FFE79DF80800800700281DD5FFE70398F3
:1038300001686FF00200086103990120087703987E
:1038400000688069800720B1FFE70398FFF7D4FF85
:1038500006E0039800F0E2F8039800F0E3F8FFE7D1
:10386000039900200877FFE7FFE79DF80400400771
:10387000002825D5FFE79DF80800400700281ED541
:10388000FFE7039801686FF00400086103990220C4
:10389000087703980068806910F4407F04D0FFE740
:1038A0000398FFF7A9FF06E0039800F0B7F8039824
:1038B00000F0B8F8FFE7039900200877FFE7FFE77B
:1038C0009DF804000007002824D5FFE79DF80800B4
:1038D000000700281DD5FFE7039801686FF0080076
:1038E000086103990420087703980068C06980077D
:1038F00020B1FFE70398FFF77FFF06E0039800F091
:103900008DF8039800F08EF8FFE703990020087700
:10391000FFE7FFE79DF80400C006002825D5FFE774
:103920009DF80800C00600281ED5FFE7039801682F
:103930006FF0100008610399082008770398006869
:10394000C06910F4407F04D0FFE70398FFF754FFED
:1039500006E0039800F062F8039800F063F8FFE7D0
:10396000039900200877FFE7FFE79DF80400C007F0
:1039700078B1FFE79DF80800C00748B1FFE703985A
:1039800001686FF001000861039800F04FF8FFE74D
:10399000FFE79DF804000006002810D5FFE79DF81A
:1039A00008000006002809D5FFE7039801686FF0BA
:1039B000800008610398FFF791FDFFE7FFE79DF89E
:1039C00004004006002810D5FFE79DF808004006D7
:1039D000002809D5FFE7039801686FF040000861EF
:1039E000039800F047F8FFE7FFE79DF80400800622
:1039F000002810D5FFE79DF808008006002809D5AB
:103A0000FFE7039801686FF0200008610398FFF753
:103A100069FDFFE7FFE704B080BD000081B00090C2
:103A200001B0704781B0009001B0704780B582B09E
:103A300001900198006840F20421C2F20001096877
:103A4000884215D1FFE702F07DF840F22410C2F25F
:103A5000000040F23401C2F2000140F22C02C2F236
:103A6000000240F22013C2F20003FCF723FEFFE73E
:103A700002B080BD81B0009001B0704780B586B0C3
:103A800004900391ADF80A20049890F84200202891
:103A900048D1FFE7039820B1FFE7BDF80A0020B93D
:103AA000FFE701208DF8170040E00499012008632A
:103AB00004990020486304980399BDF80A2001F096
:103AC000A5FA8DF809000498006B012821D1FFE7C1
:103AD000FFE70020019004980068006801900498B6
:103AE0000068406801900198FFE7FFE7FFE704984E
:103AF000006850E8030F40F010000090FFE70099C5
:103B00000498026842E803100028F0D1FFE7FFE7BD
:103B100003E001208DF80900FFE79DF809008DF80A
:103B2000170003E002208DF81700FFE79DF817004B
:103B300006B080BD80B582B00190ADF8021001984A
:103B4000006844F60001C4F2000188423AD1FFE760
:103B50000198C06B0068406850BBFFE700208DF8FB
:103B60000100FFE79DF80100BDF80210884213DA5A
:103B7000FFE79DF8012040F2DC20C2F20000805CEB
:103B800040F2EE21C2F200018854FFE79DF80100E7
:103B900001308DF80100E5E740F29420C2F2000008
:103BA00040F2EE21C2F20001122201F009FE00E013
:103BB000FFE7019840F2DC21C2F200011222FFF778
:103BC0005DFFFFE702B080BD81B0009001B070479B
:103BD00080B592B01190119800680068109011980B
:103BE0000068C0680F901198006840690E9000202E
:103BF0000D900C90109800F00F000D900D9888B962
:103C0000FFE79DF84000800600280AD5FFE79DF8F1
:103C10003C008006002804D5FFE7119801F0A4F8C5
:103C200002E2FFE70D98002800F0C280FFE79DF850
:103C30003800C00738B9FFE7BDF83C0010F4907FAA
:103C400000F0B680FFE79DF84000C00758B1FFE7DD
:103C50009DF83D00C00730B1FFE71199486C40F076
:103C600001004864FFE79DF84000400700280BD59D
:103C7000FFE79DF83800C00730B1FFE71199486CA5
:103C800040F002004864FFE79DF8400080070028EC
:103C90000BD5FFE79DF83800C00730B1FFE7119959
:103CA000486C40F004004864FFE79DF840000007BE
:103CB000002811D5FFE79DF83C008006002805D4B8
:103CC000FFE79DF83800C00730B1FFE71199486C55
:103CD00040F008004864FFE71198406C002866D067
:103CE000FFE79DF84000800600280AD5FFE79DF811
:103CF0003C008006002804D5FFE7119801F034F855
:103D0000FFE7119800684069C0F380100C9011988B
:103D1000406C0007002804D4FFE70C9800283ED030
:103D2000FFE7119800F0A6FF11980068406940066F
:103D300000282FD5FFE7FFE7FFE71198006850E85C
:103D4000050F20F040000B90FFE70B9911980268D7
:103D500042E805100028F0D1FFE7FFE71198C06B9B
:103D600098B1FFE71198C16B44F6B520C0F600008A
:103D700008651198C06BFDF797FB28B1FFE7119814
:103D8000C06B016D8847FFE703E01198FFF71CFF48
:103D9000FFE703E01198FFF717FFFFE706E0119830
:103DA000FFF712FF119900204864FFE7FFE73BE1AE
:103DB0001198006B012840F01781FFE79DF8400043
:103DC000C006002840F11081FFE79DF83C00C006C6
:103DD000002840F10981FFE7FFE700200A901198D1
:103DE000006800680A901198006840680A900A9874
:103DF000FFE71198006840694006002840F19A806A
:103E0000FFE71198C06B00684068ADF82600BDF868
:103E10002600002875D0FFE7BDF826001199898D8E
:103E200088426EDAFFE7BDF826001199C88511981F
:103E3000C06BC069B0F5807F58D0FFE7FFE7FFE7B0
:103E40001198006850E8030F20F480700890FFE795
:103E500008991198026842E803100028F0D1FFE7A2
:103E6000FFE7FFE7FFE71198006850E8050F20F033
:103E700001000790FFE707991198026842E80510D2
:103E80000028F0D1FFE7FFE7FFE7FFE711980068A0
:103E900050E8050F20F040000690FFE706991198C2
:103EA000026842E805100028F0D1FFE7FFE711990A
:103EB000202081F84200119900200863FFE7FFE706
:103EC0001198006850E8030F20F010000590FFE7FC
:103ED00005991198026842E803100028F0D1FFE725
:103EE000FFE71198C06BFDF769FAFFE7119902200F
:103EF00048631198818DC28D891A89B2FFF71AFE25
:103F000017E0BDF826001199898D884210D1FFE78E
:103F10001198C06BC069B0F5807F08D1FFE7119997
:103F2000022048631198818DFFF704FEFFE7FFE749
:103F3000FFE779E01199888DC98D401AADF812001C
:103F40001198C08D00284ED0FFE7BDF81200002860
:103F500049D0FFE7FFE7FFE71198006850E8030F3B
:103F600020F490700390FFE703991198026842E8EB
:103F700003100028F0D1FFE7FFE7FFE7FFE7119804
:103F8000006850E8050F20F001000290FFE7029959
:103F90001198026842E805100028F0D1FFE7FFE71A
:103FA0001199202081F84200119900200863FFE751
:103FB000FFE71198006850E8030F20F0100001900F
:103FC000FFE701991198026842E803100028F0D138
:103FD000FFE7FFE71199022048631198BDF812101E
:103FE000FFF7A8FDFFE71FE09DF84000000600284E
:103FF0000AD5FFE79DF83C000006002804D5FFE73E
:10400000119801F09BF80FE09DF840004006002851
:104010000AD5FFE79DF83C004006002804D5FFE7DD
:10402000119800F071FEFFE712B080BD80B582B03C
:104030000090009820B9FFE701208DF8070040E0CC
:104040000098806908B1FFE700E0FFE7009890F86A
:10405000410040B9FFE70099002081F84000009836
:1040600000F034F8FFE70099242081F8410000981F
:104070000168C86820F40050C860009800F028FF6C
:1040800000980168086920F4904008610098016870
:10409000486920F02A00486100980168C86840F427
:1040A0000050C860009900204864009A202182F8DE
:1040B0004110009A82F84210009948638DF8070079
:1040C000FFE79DF8070002B080BD000080B58AB010
:1040D0000990002008900790069005900490099898
:1040E000006844F60001C4F20001884267D1FFE78E
:1040F000FFE70020039043F64000C4F2020001688D
:1041000041F480210160006800F48020039003984E
:10411000FFE7FFE70020029043F63000C4F2020000
:10412000016841F004010160006800F004000290A1
:104130000298FFE74FF440600490022005900120B0
:104140000690032007900720089040F60000C4F274
:10415000020004A9FDF796FC40F24C10C2F20000E8
:10416000019046F22801C4F2020101604FF00061A3
:10417000416000218160C1604FF480620261416151
:104180008161C16101624162FDF740FB18B1FFE747
:10419000FCF762FAFFE7FFE7099840F24C11C2F220
:1041A0000001C16309988863FFE72720009000227F
:1041B0001146FDF7F3FE0098FDF7E6FEFFE70AB0B3
:1041C00080BD000081B0009001B0704781B00090C8
:1041D00001B0704781B0009001B07047FFE7FEE783
:1041E00080B582B040F22410C2F20000009046F286
:1041F0000041C4F2000101600321416000210191EE
:104200008160C1604FF4102202614FF400124261DC
:10421000017641768176C17601774177FCF7CEFE53
:1042200018B1FFE7FCF718FAFFE702B080BD000005
:1042300080B582B0FFE70020019043F63000C4F261
:104240000200016841F400110160006800F40010F0
:1042500001900198FFE70C20009000221146FDF725
:104260009DFE0098FDF790FE02B080BD80B590B035
:1042700000200F900E900D900C900B90FFE7002007
:104280000A9043F63000C4F20200016841F00201D6
:104290000160006800F002000A900A98FFE7FFE75B
:1042A0000020099043F63000C4F20200016841F09A
:1042B00001010160006800F0010009900998FFE722
:1042C000FFE70020089043F63000C4F202000168C6
:1042D00041F008010160006800F0080008900898AB
:1042E000FFE7FFE70020079043F63000C4F202002A
:1042F000016841F004010160006800F004000790CB
:104300000798FFE7FFE70020069043F63000C4F26D
:104310000200016841F080010160006800F0800047
:1043200006900698FFE70020C4F2020001901021D9
:10433000009100220392FDF781FD039A40F20040B4
:10434000C4F20200049001210291FDF777FD009B69
:104350000198029A03990B930C920D920E910BA95E
:104360000591FDF78FFB029B039A049805990B9327
:104370000C930D930E92FDF785FB10B080BD0000ED
:1043800080B582B040F2AC10C2F20000019043F25E
:104390000001C4F2010101604FF48271416000210B
:1043A0008160C16002220261012242614FF4007209
:1043B00082613822C2610162416281620A21C16266
:1043C000FEF746FB18B1FFE7FCF746F9FFE702B03E
:1043D00080BD000080B582B000210191009140F2C3
:1043E0000420C2F2000041F20002C4F200020260A6
:1043F00040F2E73242608160A722C2608161FFF72C
:1044000007F918B1FFE7FCF727F9FFE70020009054
:10441000019040F20420C2F200006946FFF766F8FE
:1044200018B1FFE7FCF718F9FFE702B080BD000004
:1044300080B582B040F24C20C2F20000019044F6F8
:104440000001C4F20001016048F2A061C0F2010164
:1044500041604FF4805181600021C1604FF480625F
:1044600002610C2242618161C161FFF7DFFD18B179
:10447000FFE7FCF7F1F8FFE702B080BDFFE7FEE7DA
:10448000FFE7FEE788B0079006910592079800F0D5
:10449000070004900498C0F10700052803D3FFE744
:1044A0000420019004E00498C0F107000190FFE7A8
:1044B0000198039004980430062803D8FFE70020F1
:1044C000009003E0049803380090FFE70098029002
:1044D00006980399012202FA01F101390840029B72
:1044E000984005999A40013A1140084308B0704736
:1044F0007047000080B586B0049003910292049842
:104500004068B0F5827F13D1FFE704988068B0F56A
:10451000004F06D0FFE704988068B0F5806F07D1A0
:10452000FFE704980168086820F040000860FFE792
:1045300004984068B0F5827F31D1FFE70498806825
:10454000B0F5806F15D0FFE70498039B02996A4687
:1045500011608021002200F0A5F848B1FFE704991E
:10456000486D40F02000486503208DF817002FE0CB
:1045700014E00498039B02996A461160012100220D
:1045800000F090F848B1FFE70499486D40F0200032
:10459000486503208DF817001AE0FFE714E004983F
:1045A000039B02996A4611600121002200F07AF80B
:1045B00048B1FFE70499486D40F0200048650320AA
:1045C0008DF8170004E0FFE700208DF81700FFE7E3
:1045D0009DF8170006B080BD80B586B004900391A9
:1045E00002920498039B02996A46116002210122FB
:1045F00000F058F848B1FFE70499486D40F02000FA
:10460000486503208DF8170048E040F20000C2F230
:10461000000000684AF6AB21CAF6AA21A0FB0110EF
:1046200000094DF68361C4F21B31A0FB0110800C20
:104630004FF47A714843019004984068B0F5827F46
:1046400015D1FFE70498039B02996A461160802107
:10465000002200F027F848B1FFE70499486D40F0C8
:104660002000486503208DF8170017E012E0FFE7EF
:10467000019808B9FFE70CE0019801380190FFE7C5
:10468000049800688068C1B20020B0EBD11FEFD160
:10469000FFE7FFE700208DF81700FFE79DF8170000
:1046A00006B080BD80B58AB0DDF830C008900791B3
:1046B0008DF81B20059305980190FDF7D7FB024666
:1046C00001980C99891A08440390FDF7CFFB0290DA
:1046D000039840F20001C2F200010968C1F3CB3136
:1046E00048430490FFE708980068806807990840ED
:1046F000401AB0FA80F040099DF81B1088425FD044
:10470000FFE705980130002859D0FFE7FDF7AEFB21
:104710000299401A0399884204D2FFE703980028BF
:1047200042D1FFE708980168486820F0E00048603F
:1047300008984068B0F5827F13D1FFE70898806839
:10474000B0F5004F06D0FFE708988068B0F5806F9D
:1047500007D1FFE708980168086820F0400008606A
:10476000FFE70898806AB0F5005F0FD1FFE7FFE729
:1047700008980168086820F40050086008980168EB
:10478000086840F400500860FFE7FFE7089901203F
:1047900081F85100FFE70899002081F85000FFE7F9
:1047A00003208DF827000FE0049818B9FFE70020D8
:1047B000039003E0049801380490FFE7FFE792E7D5
:1047C00000208DF82700FFE79DF827000AB080BD84
:1047D0007047000080B582B0009000980138B0F1B9
:1047E000807F03D3FFE70120019019E00098013892
:1047F0004EF21401CEF2000108604FF0FF300F219D
:1048000001F0CAF84EF21801CEF200010020086053
:104810004EF21002CEF20002072111600190FFE774
:10482000019802B080BD000080B5FDF725FB80BD7A
:1048300080B594B008A83021FBF790FD00200790C8
:104840000690059004900390FFE70020029043F645
:104850004000C4F20200016841F08051016000682C
:1048600000F0805002900298FFE7FFE700200190DF
:1048700047F20000C4F20000016841F48041016089
:10488000006800F4804001900198FFE70120089043
:104890004FF48030099002200E904FF480010F9168
:1048A00006211091A821119112900420139008A8BC
:1048B000FDF766FD18B1FFE7FBF7CEFEFFE70F201F
:1048C000039002200490002005904FF4A050069021
:1048D0004FF48050079003A80521FDF781FB18B124
:1048E000FFE7FBF7B9FEFFE714B080BD4EF6885135
:1048F000CEF20001086840F47000086070470000C4
:1049000080B540F20420C2F20000FEF779FF80BDBE
:1049100083B00290019102980068009002980021F3
:10492000C4F20101884225D0FFE70298B0F1804F20
:1049300020D0FFE7029840F20041C4F20001884213
:1049400018D0FFE7029840F60001C4F20001884247
:1049500010D0FFE7029840F60041C4F200018842FF
:1049600008D0FFE7029840F20041C4F201018842FA
:104970000AD1FFE7009820F070000090019841688C
:10498000009808430090FFE702980021C4F201015B
:10499000884255D0FFE70298B0F1804F50D0FFE732
:1049A000029840F20041C4F20001884248D0FFE77B
:1049B000029840F60001C4F20001884240D0FFE7AF
:1049C000029840F60041C4F20001884238D0FFE767
:1049D000029840F20041C4F20101884230D0FFE762
:1049E000029844F20001C4F20101884228D0FFE796
:1049F000029844F20041C4F20101884220D0FFE74E
:104A0000029844F60001C4F20101884218D0FFE781
:104A1000029841F60001C4F20001884210D0FFE77D
:104A2000029841F60041C4F20001884208D0FFE735
:104A3000029842F20001C4F2000188420AD1FFE765
:104A4000009820F4407000900198C16800980843D5
:104A50000090FFE7009820F0800001994969084321
:104A60000090019880680299C862019800680299D4
:104A7000886202980021C4F20101884208D0FFE751
:104A8000029840F20041C4F20101884205D1FFE7DB
:104A90000198006902990863FFE70299086840F0ED
:104AA000040008600299012048610098029908609A
:104AB00003B0704780B582B001900198806B009080
:104AC00000990020C8850098FFF77EF802B080BDED
:104AD00080B584B00390002002900398806B019011
:104AE000019800684069C0B2C0090290019890F82E
:104AF000410021280AD1FFE7029838B1FFE7019968
:104B00000020C884019800F013F9FFE701980068BD
:104B10004069C0F380100290019890F8420022286A
:104B20000AD1FFE7029838B1FFE701990020C88554
:104B3000019800F09FF8FFE70199486C40F01000E1
:104B400048640198FFF740F804B080BD80B586B096
:104B500005900598806B0490059800680068C00572
:104B600000285AD4FFE704990020C885FFE7FFE733
:104B70000498006850E8030F20F480700390FFE76A
:104B800003990498026842E803100028F0D1FFE777
:104B9000FFE7FFE7FFE70498006850E8050F20F003
:104BA00001000290FFE702990498026842E80510AC
:104BB0000028F0D1FFE7FFE7FFE7FFE70498006870
:104BC00050E8050F20F040000190FFE7019904989C
:104BD000026842E805100028F0D1FFE7FFE70499DA
:104BE000202081F842000498006B012814D1FFE7CF
:104BF000FFE7FFE70498006850E8030F20F010007B
:104C00000090FFE700990498026842E8031000282A
:104C1000F0D1FFE7FFE7FFE7FFE7049900204863D3
:104C20000498006B012805D1FFE70498818DFEF7F9
:104C300081FF03E00498FFF7C5FAFFE706B080BDE7
:104C400080B582B001900198806B0090009901209E
:104C500048630098006B012806D1FFE70098818D1A
:104C60004908FEF767FF03E00098FFF7AFFAFFE798
:104C700002B080BD84B00390FFE7FFE703980068AF
:104C800050E8030F20F490700290FFE70299039818
:104C9000026842E803100028F0D1FFE7FFE7FFE7D2
:104CA000FFE70398006850E8050F20F0010001902D
:104CB000FFE701990398026842E805100028F0D147
:104CC000FFE7FFE70398006B012814D1FFE7FFE738
:104CD000FFE70398006850E8030F20F010000090F1
:104CE000FFE700990398026842E803100028F0D11A
:104CF000FFE7FFE7FFE70399202081F842000399CF
:104D00000020086304B0704780B582B0019001981C
:104D10000168C86820F04000C8600199202081F82F
:104D200041000198FFF756FA002002B080BD000054
:104D300082B00190FFE7FFE70198006850E8030F99
:104D400020F0C0000090FFE700990198026842E857
:104D500003100028F0D1FFE7FFE70199202081F838
:104D6000410002B07047000080B586B0049000207A
:104D700003900290049890F84200222840F0A0800E
:104D8000FFE704988068B0F5805F13D1FFE70498CF
:104D9000006978B9FFE70498806A02900498006877
:104DA00040686FF35F20029908800499886A023096
:104DB000886223E00498806A039004988068B0F5C4
:104DC000805F08D0FFE70498806850B9FFE7049837
:104DD000006930B9FFE704980068406803990870DB
:104DE00007E004980068406800F07F0003990870AD
:104DF000FFE70499886A01308862FFE70499C88D4B
:104E00000138C8850004002856D1FFE704980168DE
:104E1000C86820F02000C86004980168C86820F4C1
:104E20008070C86004980168486920F001004861FA
:104E30000499202081F842000499002048630498D6
:104E4000006B012830D1FFE7049900200863FFE7D9
:104E5000FFE70498006850E8030F20F0100001906D
:104E6000FFE701990498026842E803100028F0D196
:104E7000FFE7FFE7049800680068C00600280ED529
:104E8000FFE7FFE7002000900498006800680090AA
:104E900004980068406800900098FFE7FFE70498D6
:104EA000818DFEF747FE03E00498FFF78BF9FFE7DB
:104EB00000208DF8170007E000208DF8170003E0B0
:104EC00002208DF81700FFE79DF8170006B080BD9F
:104ED00080B586B0059005980068006920F44050C0
:104EE000059A1168D26810430861059988680B69B2
:104EF0004A69C9691843104308430490059800683B
:104F0000C06849F20C61884304990843059909680F
:104F1000C86005980068406920F44070059A1168DF
:104F20009269104348610598006841F20001C4F29B
:104F30000101884209D0FFE70598006841F200416D
:104F4000C4F20101884204D1FFE7FDF793F9039011
:104F500003E0FDF77DF90390FFE70598C069B0F520
:104F6000004F29D1FFE703981921A0FB0101059A01
:104F70001368029353685A00DB0FFBF777F9029925
:104F8000864648F21F53C5F2EB13AEFB03204209DD
:104F900010014FF0640C02FB1CEC322202EBCC023D
:104FA000A2FB0332F82303EA521300EB4300C2F3DF
:104FB00042121044886026E003981921A0FB0101E9
:104FC000059A1368019353689A009B0FFBF74EF9FB
:104FD0000199844648F21F52C5F2EB12ACFB023035
:104FE0004309642003FB10CC322000EB0C10A0FB23
:104FF0000202F02000EA521000EB0310C2F3431249
:1050000010448860FFE706B080BD000080B58AB01C
:1050100008900791ADF81A20079808998862BDF8A2
:105020001A0008998885089900204864089A222166
:1050300082F842100899CA6B44F64D31C0F600015F
:10504000D1630899CA6B44F64141C0F6000111646E
:105050000899CA6B44F6D121C0F60001D1640899C1
:10506000C96B086507A8059008980168C06B0431F2
:10507000059A1268BDF81A30FCF780FC58B1FFE7BA
:105080000899102048640899202081F842000120E6
:105090008DF827004EE0FFE7002004900898006894
:1050A0000068049008980068406804900498FFE73E
:1050B00008980069A0B1FFE7FFE7FFE708980068DC
:1050C00050E8030F40F480700390FFE703990898BD
:1050D000026842E803100028F0D1FFE7FFE7FFE78E
:1050E000FFE7FFE70898006850E8050F40F001006F
:1050F0000290FFE702990898026842E8051000282C
:10510000F0D1FFE7FFE7FFE7FFE70898006850E806
:10511000050F40F040000190FFE7019908980268F0
:1051200042E805100028F0D1FFE7FFE700208DF8E6
:105130002700FFE79DF827000AB080BD83B00190EB
:10514000019890F8410021283AD1FFE70198806842
:10515000B0F5805F13D1FFE70198006978B9FFE7E8
:105160000198006A0090009800886FF35F20019911
:10517000096848600199086A0230086208E0019AEB
:10518000106A411C11620078019909684860FFE7C4
:105190000199C88C0138C884000468B9FFE70198F8
:1051A0000168C86820F08000C86001980168C8687C
:1051B00040F04000C860FFE700208DF80B0003E0DE
:1051C00002208DF80B00FFE79DF80B0003B070473D
:1051D00080B540F24C20C2F20000FEF7F9FC80BD21
:1051E000FFE7FEE780B500F01FFC80BD80B500F052
:1051F00013FC80BD86B00590049103928DED020AE8
:10520000CDED010A9DED020A05980499401A01EEC0
:10521000100AB8EEC11A9DED012A32EE402A21EEA5
:10522000021A0398401A02EE100AB8EEC22A81EE62
:10523000021A30EE010A8DED000A9DED000A06B05B
:105240007047000080B540F20040C4F20200012225
:105250001146FCF7F3FD80BD80B540F20040C4F27A
:10526000020001210022FCF7E9FD80BD80B582B07B
:105270000190019940F2AC10C2F2000001224FF4FB
:105280007A73FDF7D7FCFFE740F2AC10C2F20000E2
:10529000FDF7D6FB042801D1FFE7F5E702B080BD9A
:1052A00080B582B08DF807008DF806109DF80700D4
:1052B00000F07F008DF804009DF806008DF80500D1
:1052C00040F2AC10C2F2000001A902224FF47A733E
:1052D000FDF7D8FD02B080BD80B50020C4F2020009
:1052E00010210122FCF7AAFD80BD000080B500203E
:1052F000C4F2020010210022FCF7A0FD80BD0000D6
:1053000080B582B08DF8070040F2AC10C2F2000008
:105310000DF1070101224FF47A73FDF7B3FDFFE7AA
:1053200040F2AC10C2F20000FDF78AFB032801D165
:10533000FFE7F5E702B080BD80B586B0059005981F
:10534000029013200DF11301009100F077FB122061
:105350000DF11201019100F071FB0099029A9DF884
:1053600013309DF8120040EA03201080152000F051
:1053700065FB0199142000F061FB0099029A9DF8E9
:1053800013309DF8120040EA03205080172000F0EF
:1053900055FB0199162000F051FB02989DF813204F
:1053A0009DF8121041EA0221818047F25831C3F67C
:1053B00080210391B0F9001000EE101AB8EEC00A77
:1053C0009FED0D1A20EE010A80ED030AB0F90210DC
:1053D00000EE101AB8EEC00A20EE010A80ED040AB1
:1053E000B0F9041000EE101AB8EEC00A20EE010A5F
:1053F00080ED050A06B080BD5873803A80B588B04C
:1054000007900798039090ED060A90ED091A90ED29
:105410000D2A20EE020A30EE010A80ED090A90ED15
:10542000070A90ED0A1A90ED0D2A20EE020A30EEDE
:10543000010A80ED0A0A90ED080A90ED0B1A90ED32
:105440000D2A20EE020A30EE010A80ED0B0A41F22D
:105450008761C4F24901069190ED040AD0ED050A76
:1054600000F0EAFB03989FED291A8DED021A20EE59
:10547000010A9DED061A80EE010A8DED050A90EDF8
:10548000032A90ED040A90ED051AB1EE422A8DED43
:10549000012A21EE011A20EE000A30EE010A00F086
:1054A00021FDF0EE400A9DED010A00F0C5FB9DEDE7
:1054B000021A039820EE010A9DED061A80EE010AF9
:1054C0008DED040A90ED093A90ED0C0AB7EE001A42
:1054D00031EE402A9DED054A22EE042A20EE030A11
:1054E00030EE020A80ED090A90ED0A2A90ED0C0ACE
:1054F00031EE401A9DED043A21EE031A20EE020A25
:1055000030EE010A80ED0A0A08B080BD0000344385
:1055100080B582B0019000F0C9FA02B080BD0000F1
:1055200080B582B0019001980090FFF705FF0098C8
:1055300000F006F80098FFF761FF02B080BD0000A0
:1055400080B586B005900598029003200DF11301F7
:10555000009100F091FA02200DF11201019100F08A
:105560008BFA0099029A9DF813309DF8120040EAD8
:105570000320D080052000F07FFA0199042000F07C
:105580007BFA0099029A9DF813309DF8120040EAC8
:1055900003201081072000F06FFA0199062000F027
:1055A0006BFA02989DF813209DF8121041EA02212F
:1055B000418140F66C11C3F679310391B0F90610C0
:1055C00000EE101AB8EEC00A9FED0D1A20EE010A87
:1055D00080ED060AB0F9081000EE101AB8EEC00A05
:1055E00020EE010A80ED070AB0F90A1000EE101A49
:1055F000B8EEC00A20EE010A80ED080A06B080BDB0
:105600006C09793B81B0009000980021C160016174
:1056100041618161C161016241628162C1624EF298
:105620004811C3F67A7101634DF20A71C3F6234142
:10563000416301B07047000080B584B003900291CF
:10564000039800900298008840BA019001980021C8
:10565000FF229FED4B0ADFED4B0AFFF7CBFD0098D1
:1056600080ED030A90ED030A90ED041A30EE410A32
:1056700080ED050A90ED050A9FED431AB4EE410A4C
:10568000F1EE10FA0ADDFFE7009890ED050A9FEDB4
:105690003F1A30EE010A80ED050AFFE7009890ED11
:1056A000050A9FED3B1AB4EE410AF1EE10FA0ADA50
:1056B000FFE7009890ED050A9FED361A30EE010ADB
:1056C00080ED050AFFE7009890ED001A90ED050ABD
:1056D00080EE010A80ED020A90ED010A90ED021AB7
:1056E00030EE010A80ED010A0299498849BA00EEBC
:1056F000101AB8EEC00A80ED060A90ED060A9FED7A
:10570000261A80EE010A10EE100A00F09DFE41EC10
:10571000100B51EC100B9FED160B53EC102B00F0FF
:105720003BFC41EC100B51EC100B9FED130B53ECB9
:10573000102B00F08BFD41EC100B51EC100B00F026
:10574000F9FB009988610298808840BA00EE100A3F
:10575000B8EEC00A81ED070A0298807900EE100ABF
:10576000B8EE400A81ED080AC868086104B080BD3F
:105770006E861BF0F92109400000000000806640A1
:105780000000000000007F43000034430000B4C369
:10579000000034C30000B4430000704282B00190A6
:1057A0008DED000A0198009901600021416081603F
:1057B000C160016141618161C161016202B07047F4
:1057C00080B588B0079006918DF81720079804904F
:1057D0009DF81700122801D0FFE7A8E00498069A68
:1057E0001178527841EA02216FF3DF210180069A95
:1057F00051789278C90841EA42116FF3DF21418064
:10580000069A9178D3781279890941EA830141EAAD
:1058100082216FF3DF218180069A1179527949083C
:1058200041EAC2116FF3DF21C18006994979C1F3C2
:10583000011101720699497989094172407A01285A
:1058400004D1FFE704990020087413E00498407A1B
:10585000032804D1FFE704990120087409E00498A3
:10586000407A022804D1FFE7049902200874FFE778
:10587000FFE7FFE70498007A012804D1FFE70499C5
:105880000020487413E00498007A032804D1FFE74D
:1058900004990120487409E00498007A022804D190
:1058A000FFE7049902204874FFE7FFE7FFE7049849
:1058B00080884FF4B671009140F294620192BFEE7D
:1058C000000A8DED030AF7EE000ACDED020AFFF79C
:1058D00091FC0099019ADDED020A0498B0EE401A9D
:1058E0009DED030A80ED051AC088FFF783FC00993F
:1058F000019ADDED020A0498B0EE401A9DED030A0C
:1059000080ED061A0088FFF775FC0099019ADDED1D
:10591000020A0498B0EE401A9DED030A80ED071AC2
:105920004088FFF767FC049880ED080AFFE708B09D
:1059300080BD000084B0039002910192009303980F
:10594000416A029A1160816A019A1160C06A0099E5
:10595000086004B07047000081B08DF803009DF925
:10596000030000280ED4FFE79DF9031001F01F0289
:10597000012090404A094EF20011CEF2000141F898
:105980002200FFE701B070474EF60C50CEF2000047
:105990000068C0F30220704782B08DF807000091C4
:1059A0009DF9070000280AD4FFE7009800019DF93F
:1059B00007104EF20042CEF2000288540BE000982D
:1059C00000019DF8071001F00F014EF61452CEF2BF
:1059D00000028854FFE702B07047000083B00290D5
:1059E000029800F0070000904EF60C51CEF2000134
:1059F0000868019001984FF6FF021040019001984D
:105A0000009A40EA02200022C0F2FA5210430190AC
:105A10000198086003B0704780B540F2E800C2F218
:105A20000000FFF7EFFD80BD80B540F2B800C2F284
:105A30000000B3EE030AFFF7B1FE80BD80B584B06D
:105A40008DF80F000291FFF7FDFBFFF74FFC9DF86B
:105A50000F0040F080008DF807009DF80700FFF769
:105A60004FFC0298FFF702FC0298FFF7FFFBFFF7DD
:105A700033FC04B080BD000080B584B08DF80F0009
:105A80000291FFF729FCFFF7E7FB9DF80F0040F0BC
:105A900080008DF807009DF80700FFF731FC0298A1
:105AA000FFF7E4FBFFF7CEFB04B080BD80B582B00A
:105AB000FFF71CFC7E20B6210091FFF7F1FB0120CF
:105AC0000190FBF7BDFFFFF707FCFFF7C5FB00994F
:105AD0001420FFF7E5FB1E20FBF7B2FFFFF7B2FB38
