:020000040800F2
:10000000100800202902000845230008A521000847
:1000100041230008F10300088526000800000000C5
:100020000000000000000000000000007124000833
:10003000250400080000000049230008752400087A
:10004000430200084302000843020008430200087C
:10005000430200084302000843020008430200086C
:10006000430200084302000843020008430200085C
:10007000430200084302000843020008430200084C
:100080004302000843020008430200081904000864
:10009000F5030008010400080D04000843020008ED
:1000A000430200084302000843020008430200081C
:1000B000430200084302000843020008430200080C
:1000C00043020008430200084302000843020008FC
:1000D00043020008430200084302000843020008EC
:1000E00043020008430200084302000843020008DC
:1000F00043020008430200084302000843020008CC
:1001000043020008430200084302000843020008BB
:100110004302000843020008352500084302000896
:10012000430200084302000843020008430200089B
:10013000430200084302000843020008430200088B
:10014000430200084302000843020008430200087B
:10015000430200084302000843020008430200086B
:10016000430200084302000843020008430200085B
:100170004302000843020008430200080000000098
:10018000430200084302000800F002F800F03CF8C7
:100190000AA090E8000C82448344AAF10107DA45E2
:1001A00001D100F031F8AFF2090EBAE80F0013F0F8
:1001B000010F18BFFB1A43F00103184798330000E2
:1001C000B8330000103A24BF78C878C1FAD8520773
:1001D00024BF30C830C144BF04680C6070470000C1
:1001E0000023002400250026103A28BF78C1FBD840
:1001F000520728BF30C148BF0B6070471FB503F0DE
:100200008EF91FBD10B510BD00F0BCF81146FFF708
:10021000F5FF02F0CDFC00F0DAF803B4FFF7F2FFCF
:1002200003BC00F0DDF8000009488047094800479A
:10023000FEE7FEE7FEE7FEE7FEE7FEE7FEE7FEE796
:10024000FEE7FEE704480549054A064B70470000F3
:100250002125000889010008100200201008002054
:10026000100400201004002053EA020C00F0698002
:100270002DE9F04B4FF00006002B1FBFB3FA83F5BA
:1002800003FA05F424FA05F65E4012BF1643B2FAEB
:1002900082F502FA05F4C5F120051EBF22FA05FC1D
:1002A00044EA0C04203556EA044C4FEA144418BFC3
:1002B000641C4FF000084FF00009904271EB030CF2
:1002C00039D3002919BFB1FA81F701FA07F6B0FA5C
:1002D00080F700FA07F6C7F120071EBF20FA07FCD7
:1002E00046EA0C062037B6FBF4FCA7EB0507103FE7
:1002F00007F01F0BCBF120062CFA06F60CFA0BFBCD
:1003000044BFB3460026202FA4BF5E464FF0000B2B
:100310005BEA060C08BF4FF0010B19EB0B0948EB29
:100320000608ABFB027C06FB02CC0BFB03CCC01B1C
:1003300071EB0C01C1E70B46024641464846BDE859
:10034000F08B13B5084318BF4FF0FF300146AFF3F1
:100350000080BDE81C40704770477047704710B57B
:1003600000F008F8006810BD10B5044600F002F86F
:10037000046010BD00487047B0000020004870477E
:10038000B00000207546FFF7F9FFAE46050069464C
:10039000534620F00700854618B020B5FFF752FFFE
:1003A000BDE820404FF000064FF000074FF0000876
:1003B0004FF0000BAC46ACE8C009ACE8C009ACE8B3
:1003C000C009ACE8C00921F007018D46704710B59F
:1003D0000446AFF300802046BDE81040FFF71DBF84
:1003E00001491820ABBEFEE726000200704700005E
:1003F000FEE7000040F22010C2F2000000F090B9C9
:1004000040F22010C2F2000000F08AB940F2201041
:10041000C2F2000000F084B940F22010C2F20000E5
:1004200000F07EB97047000072B600BFFEE7000022
:1004300090F82020013A012A08D8006800F114023F
:100440000020136819431160704700BF00F12402B7
:1004500001204FF480211368194311607047000098
:1004600010B590F820E0D0F800C0AEF1010EBEF15A
:10047000010FDCF808E011D81EF0E05F18D0CEF3D1
:10048000016E012000FA0EF018608B68D3B1486845
:10049000CC6844EAC000034318E000BF00F1240127
:1004A00001204FF480220B681A430A6010BD00BF80
:1004B00000F1240101204FF400120B681A430A6076
:1004C00010BD00BF0868CB6843EA40530CEB0E1028
:1004D000C0F880310B69C0F88431097D012905D14C
:1004E00000F5C2710B6843F480730B605168C0F86B
:1004F0008C11126800F5C071C0F88821002001221B
:100500000B681A430A6010BDB0B590F82020013A7C
:10051000012A2FD846F20060C4F20000026842F0BF
:1005200001020260026822F47C520260D1F814E0F9
:10053000CC694A6A0368012C43EA022202600EF089
:100540001F024FF0010303FA02F2C3696FEA020CC3
:1005500023EA0203C36113D02CBBC36803EA0C0374
:10056000C360CB688C8844EA034300EBCE04236469
:100570000B4611E0416A41F4802141620120B0BD87
:10058000C3681343C3600B688C8844EA034300EBE1
:10059000CE04236401F10C038C681B8843EA0443F6
:1005A00000EBCE04636443688D6943EA0204D1F82A
:1005B00010E0096A002D08BF03EA0C044460436997
:1005C000BEF1000F43EA020408BF03EA0C0401294C
:1005D000446102D1C1691143C161016821F0010187
:1005E00001600020B0BD00007047000010B590F819
:1005F0002040013C012C7BD8D0F800C0002900F03D
:100600008180DCF81040A40700F081800CEB011C15
:10061000DCF8B0410CF5D87E14F004049460DCF8EA
:10062000B04119BFE4085460640D1460DEF8004066
:100630000CF5DA7E04F00204D460DCF8B44124073F
:100640005ABFDEF8004004F00F0408241461DEF8FD
:1006500000400029C4F307249461DEF800404FEA0B
:1006600014445461DCF8B8211A70026802EB0112DC
:10067000D2F8B8214FEA12225A70026802EB011236
:10068000D2F8B8214FEA12429A70026802EB0112C6
:10069000D2F8B8214FEA1262DA70026802EB011256
:1006A000D2F8BC211A71026802EB0112D2F8BC2107
:1006B0004FEA12225A71026802EB0112D2F8BC21F1
:1006C0004FEA12429A71026802EB0112D2F8BC2181
:1006D0004FEA1262DA71006814BF00F1100100F1F4
:1006E0000C01002020220B681A430A6010BD00BFD5
:1006F00000F1240101204FF480220B681A430A60A4
:1007000010BD00BFDCF80C40A4077FF47FAF00F100
:10071000240101204FF400120B681A430A6010BD37
:100720002DE9F04F81B0044600684669D0F8049086
:100730008768D0F80CB0D0F810A0D0F81880F10776
:1007400004D1002530071DD424E000BFF90710D0E4
:100750000121BA07816009D4780700F1AF8038071A
:1007600000F1B680204600F03BFA02E0204600F09F
:1007700039FA0025F80500F18780F80300F1B1800F
:10078000300707D51BF0100004D0206845F4007531
:100790001021C160700708D51BF0080005D0206843
:1007A0000821C160204600F0B9F9B00706D52068DD
:1007B000C068800702D0204600F0B2F9700607D565
:1007C0001AF0100004D0206845F480651021016102
:1007D000B00608D51AF0080005D02068082101618C
:1007E000204600F0C9F9F00606D5206800698007A8
:1007F00002D0204600F0C2F9B00308D519F010006D
:1008000005D0206810214160204600F0B9F9F003BE
:1008100008D519F0080005D020680821416020465D
:1008200000F0EAF9300440F19B805FEA497040F142
:10083000948006F4807008EA102028435FEA8871EB
:10084000014648BF41F00201B20558BF01465FEAC8
:1008500048700D4648BF45F00405700558BF0D4669
:10086000300540F17A8018F0700000F07680103882
:10087000000905286CD8DFE800F003595D6165695F
:1008800045F0080564E000BF20684FF48071BA05A8
:1008900081600BD4780515D438051DD4204600F0AE
:1008A000A3F9F8037FF56CAF1BE000BF204600F012
:1008B0009DF9F8037FF564AF13E000BF4FF40065C6
:1008C00058E700BF05F50055F8037FF559AF08E07C
:1008D0004FF480554EE700BF05F58045F8037FF5DE
:1008E0004FAF20684FF48031BA0381600AD4780397
:1008F00010D4380314D4204600F07AF930073FF5BD
:1009000041AF47E7204600F075F930073FF53AAFB1
:1009100040E700BF05F5004530073FF533AF39E745
:1009200005F5803530073FF52DAF33E745F010056D
:100930000EE000BF45F020050AE000BF45F040058D
:1009400006E000BF45F0800502E000BF45F4807579
:100950002068816921F07001816120680421416073
:1009600055B1606A40EA05012046616201B0BDE808
:10097000F04FFFF739BE00BF01B0BDE8F08F0000B7
:10098000B0B5C8B1044690F8200010B9204600F078
:1009900071F82068016841F00101016000F01CFA63
:1009A000054600BF20684168C90707D100F014FA66
:1009B000401B0B28F6D312E00120B0BD016821F0E6
:1009C0000201016000F008FA054600BF2068416896
:1009D00089070DD500F000FA401B0B28F6D3606A9A
:1009E000052140F400306062012084F82010B0BD81
:1009F000217E0268012922F0800208BF8032026055
:100A0000617E0268012922F0400208BF4032026084
:100A1000A17E0268012922F0200208BF2032026074
:100A2000E17E0268012922F0100218BF1032026034
:100A3000217F0268012922F0080208BF0832026003
:100A4000617F0268012922F0040208BF04320260BB
:100A5000D4E901C2D4E9033561691A432A43114339
:100A6000ACF101021143C16100200121606284F8F0
:100A70002010B0BD80B586B0016846F20040C4F2D7
:100A80000000814202D006B080BD00BF002143F6C5
:100A900030020191C4F20202136900F5D43043F030
:100AA00000731361136903F000730193019B0191BB
:100AB000136843F0080313601268022302F008026F
:100AC0000192019ACDE9023109210322059101A980
:100AD0000192049200F0A6F813200021002200F0F9
:100AE000FFF9132000F0E8F914200021002200F0A3
:100AF000F7F9142000F0E0F915200021002200F0A1
:100B0000EFF9152000F0D8F916200021002200F09E
:100B1000E7F9162000F0D0F906B080BD704700005C
:100B200010B5006846F20041C4F20001884218BFC7
:100B300010BD40F2F01440F22010C2F2000440F266
:100B4000E813C2F20000C2F2000300212246FFF7C0
:100B50004DFD206840F2012188420BD140F208008F
:100B600040F2E811C2F20000C2F20001BDE81040FC
:100B700001F092BE10BD00007047000070470000F9
:100B800070470000B0B5044690F8200001281DD140
:100B9000022084F820002068016821F00101016032
:100BA00000F01AF9054600BF20684068C00713D05E
:100BB00000F012F9401B0B28F6D3606A40F40030B5
:100BC0006062052084F820000120B0BD606A40F416
:100BD000002060620120B0BD00206062B0BD000056
:100BE0007047000070470000704700007047000029
:100BF000704700007047000070470000B0B5044621
:100C000000F0EAF8054640F20000C2F20000007869
:100C1000611C18BF044400BF00F0DEF8401BA04276
:100C2000FAD3B0BD2DE9F04F82B000F13E4241F65B
:100C3000004502F1FF77C4F20205082243F6004E98
:100C40004FEAB726A84208BF0722C4F2010E072EBA
:100C500038BF4FEAB7220125002600274FF00008D1
:100C6000009208E008F101080437B8F1100F06F10E
:100C7000020600F0A7800C6805FA08F914EA090FCB
:100C8000F0D0D1F804B003220BF0030CACF1010456
:100C9000B240012C6FEA020A10D88268CC6802EADE
:100CA0000A02B440224382604268CBF3001422EA75
:100CB000090204FA08F42243426005E0BCF1030F84
:100CC00002D14FF0030C20E0C2688C6802EA0A02ED
:100CD000B4402243BCF1020FC26016D16FF0030290
:100CE00002EA58020244D2F820C007F01C050F2384
:100CF0000C69AB402CEA030304FA05F52B4313629D
:100D0000D1F804B001250BF0030C02680CFA06F3CD
:100D100002EA0A021A431BF4403F0260A2D00022FA
:100D200043F644030192C4F202031A684FF6084CDA
:100D300042F480421A601A68CFF6FF7C02F48042C7
:100D40000192019A28F00302724452F80C3007F025
:100D50000C050F24AC40A343009C04FA05F52B437B
:100D600042F80C30DEF808204B6842EA090543F6E9
:100D70000C4CDC0258BF22EA0905CEF80850C4F238
:100D8000010CDCF800209C0242EA090558BF22EA67
:100D90000905CCF80050DEF804209C0342EA09055E
:100DA00058BF22EA0905CEF80450DEF80020DB0324
:100DB00042EA090558BF22EA0905CEF8005001258C
:100DC00050E700BF02B0BDE8F08F0000002A08BF66
:100DD000090481617047000040F20C20C2F200005B
:100DE0000068704740F2000040F20C21C2F200009F
:100DF000C2F2000100780A681044086070470000E1
:100E000080B543F60040C4F20200016841F400716D
:100E10000160016841F480610160016841F4807102
:100E20000160032000F088F80F2000F005F800F0C2
:100E300027F8002080BD000070B540F20006C2F225
:100E4000000640F22C013278C2F200014FF47A73AE
:100E50000968B3FBF2F20446B1FBF2F1084600F078
:100E6000B1FF0F2C4FF0010508D838B94FF0FF3013
:100E700021460022002500F033F87460284670BD3A
:100E800082B0002043F640010190C4F202014A689A
:100E900042F480424A604A6802F480420192019A18
:100EA0000090086840F080500860086800F08050AA
:100EB0000090009802B07047002848BF7047C1B248
:100EC00000F01F00012202FA00F04EF20012CEF2F2
:100ED000000242EAD10121F00301086070470000DE
:100EE00010B54EF60C5CCEF2000CDCF80030C3F30B
:100EF000022E8EF00704042C28BF0424BEF1030345
:100F00004FF0FF3E0EFA04F438BF0023A14399408E
:100F10000EFA03F39A43114300F00F0200F160430D
:100F20000901043A03F564436244002848BF02F112
:100F30000C03197010BD00004EF60C51CEF20001EA
:100F40000A684FF6FF031A4060F30A2242F08060FD
:100F500040F0FD70086070472DE9F041002800F076
:100F60008B8043F60808C4F202080446D8F8F80358
:100F70000D4600F00700884207D288F8F853D8F8E9
:100F8000F80300F00700A84276D12068810717D542
:100F9000410705D5D8F8001041F4E051C8F8001019
:100FA000010705D5D8F8001041F46041C8F80010D9
:100FB000D8F80010A26821F0F0011143C8F8001021
:100FC000C0073FD1D8F8F80300F00700A84207D9BE
:100FD00088F8F853D8F8F80300F00700A8424BD17E
:100FE0002068410707D5D8F80010E26821F4E051E5
:100FF0001143C8F80010000708D5D8F8000021698F
:1010000020F4604040EAC100C8F8000000F054F845
:10101000D8F8001043F24252C1F30311C0F60002A7
:10102000515C40F22C0220FA01F140F20400C2F2BD
:1010300000000068C2F200021160FFF7FDFE002010
:10104000BDE8F0816068811E022907D258F8081CAB
:1010500089015CBF0120BDE8F08111E0012807D1C2
:1010600058F8081C89035CBF0120BDE8F08107E047
:1010700058F8081C890703D40120BDE8F08100BF9F
:10108000D8F8001021F003010843C8F80000FFF76A
:10109000A3FE064641F28837D8F80000616800F0E8
:1010A0000C00B0EB810F8DD0FFF796FE801BB8428D
:1010B000F2D90320BDE8F08110B543F60404C4F270
:1010C0000204606800F00C0008280BD0042819BF47
:1010D00042F20040C0F2F40041F60030C0F2B70026
:1010E00010BD00BF206821682368490241F6003125
:1010F000C0F2B70100F03F02C3F388105CBF42F2B8
:101100000041C0F2F401A1FB00010023FFF7ACF89D
:1011100021680222C1F3014102EB4101B0FBF1F071
:1011200010BD00002DE9F04182B0002868D00446CF
:10113000007843F60006C007C4F202060BD0B06880
:1011400000F00C00042840F09F803068800302D536
:101150006068002854D0207880071AD5B06810F055
:101160000C0F09D0B06800F00C00082840F0A680F1
:101170007068400200F1A2803068800702D5E06804
:1011800001283DD13068216920F0F80040EAC10013
:1011900030602078000737D4207840074CD4A56908
:1011A00055B3B06800F00C00082840F0BB80012D5A
:1011B00026D07068E16900F480028A4220D1216A59
:1011C00000F03F028A421BD147F6C071626A0140BB
:1011D000B1EB821F14D1A16A4FF6FF73C903994383
:1011E00000F44032A1F580318A4209D1E16A00F071
:1011F0007060B0EB016F03D1002002B0BDE8F08158
:10120000012002B0BDE8F0816069002840F20000D2
:10121000C4F2472076D00121C0F8801EFFF7DCFD24
:10122000054600BF706F8007B6D4FFF7D5FD401BA1
:101230000228F7D9DDE000BF306C10F080580AD1E9
:1012400000200190306C40F080503064306C00F031
:1012500080500190019847F20007C4F200073868F7
:10126000C00541D4386840F480703860FFF7B4FDA1
:10127000054600BF3868C00536D4FFF7ADFD401BFA
:101280000228F7D9B5E000BFB06800F00C000828CC
:1012900003D1706840023FF558AF6068B0F5803FF9
:1012A00007D0B0F5A02F40F08D80306840F480204A
:1012B0003060306840F4803030608DE0E0680028B5
:1012C00052D00020C4F2472001210160FFF784FDC5
:1012D000054600BF306880073FF554AFFFF77CFD3F
:1012E000401B0228F6D984E0A068012805D0052813
:1012F0004ED1306F40F004003067306F40F0010095
:1013000030674FE00021C0F8801EFFF765FD0546FD
:10131000706F80077FF540AFFFF75EFD401B02282E
:10132000F6D966E00027C4F2472700203866FFF7A9
:1013300053FD022D05460BD1306880015ED5FFF7C5
:101340004BFD401B02284FF00300F5D955E700BFC5
:10135000306880017FF550AFFFF73EFD401B02284B
:101360004FF00300F4D948E70020C4F247200021E1
:101370000160FFF731FD0546306880077FF509AF52
:10138000FFF72AFD401B02284FF00300F4D934E791
:10139000316F002821F001013167316F21F0040124
:1013A00031674DD0FFF718FD054641F2883700BF81
:1013B000306F800756D4FFF70FFD401BB842F7D9B6
:1013C00017E000BF3168002821F4803131603168B6
:1013D00021F4802131604FD0FFF7FEFC054600BFAD
:1013E000306880033FF5B7AEFFF7F6FC401B64287A
:1013F000F6D9032002B0BDE8F08100BF04F11C055E
:101400002FCD084340EA8210D9034FF6FF72914373
:10141000A1F5803140EA056008437060012038661C
:10142000FFF7DAFC044600BF306880013FF5E4AE08
:10143000FFF7D2FC001B02284FF00300F4D9DCE6D2
:10144000FFF7CAFC054641F2883700BF306F8007BE
:1014500008D5FFF7C1FC401BB8424FF00300F5D997
:10146000CBE600BFB8F1000F7FF499AE306C20F0EE
:101470008050306493E600BFFFF7AEFC054600BF26
:10148000306880037FF567AEFFF7A6FC401B642839
:101490004FF00300F4D9B0E690F851007047000017
:1014A00070B538B10446406A30B10020206104F1C3
:1014B000140007E0012070BD6068B0F5827F03D0A2
:1014C00004F11C00002101600026A66294F851007E
:1014D00020B9204684F8506000F03CF8022084F8DF
:1014E000510094E80F0001F48271056802F404428F
:1014F00025F040050560114403F40062236911449E
:1015000003F002026369114403F00102A369E56973
:10151000114403F40072114405F03802256A1144A5
:1015200005F08002A56A114305F4005211430160E1
:10153000626A042101EA134102F010021144416081
:10154000C16921F40061C1610120666584F8510020
:10155000304670BD2DE9F04385B0006843F20005C8
:10156000C4F20105A84203D005B0BDE8F08300BF76
:10157000002643F630000096C4F2020041696C4632
:1015800041F48051416141694FF0020801F48051FA
:1015900000910099009601684FF0030941F00201A3
:1015A00001600168052701F0020100910099009691
:1015B000016841F0010101600068214600F001006E
:1015C000009000981820009005F55440CDE9018660
:1015D000CDF80C900497FFF725FB8020CDE900089B
:1015E00005F550402146CDE902690497FFF71AFB43
:1015F00005B0BDE8F08300002DE9F04182B004465B
:1016000090F85100012818D10E4600294FF0010032
:1016100000F0EF801746002A00F0EB8060681D465E
:10162000B0F5827F03D1A068002800F0BB80FFF7EF
:10163000D3FB94F85010012904D1022002B0BDE878
:10164000F08100BF8046012084F850000420002172
:1016500084F851006165A663A787E7872163A186A7
:10166000E186A2682068B2F5004F2164616437D03A
:10167000016849063FD5E168E08F002943D0002882
:101680007AD0681C0BD11AE0C068A16B21F8020B5C
:10169000A163E08F0138E087E08F00286CD02068DC
:1016A0008168C907F0D1FFF797FBA0EB0800A842BB
:1016B000F2D342E0FFF790FBE08F00285CD0206877
:1016C0008168C907F6D0C068A16B21F8020BA1633D
:1016D000E08F0138E087E08F0028F0D14CE000BFB8
:1016E000016821F040010160016821F4804101603E
:1016F00001684906BFD4016841F040010160E1681A
:10170000E08F0029BBD1B8B3681C0CD124E000BF26
:10171000007BA16B0870A06B0130A063E08F0138E3
:10172000E087E08F40B320688168C907F0D1FFF7F8
:1017300053FBA0EB0800A842F3D3012084F851002A
:10174000002084F85000032002B0BDE8F08100BF03
:10175000FFF742FBE08F78B120688168C907F7D0B6
:10176000007BA16B0870A06B0130A063E08F013893
:10177000E087E08F0028EFD16068B0F5827F0ED15E
:10178000A068B0F5004F02D0B0F5806F18D1216885
:10179000B0F5806F0A6822F040020A6010D120463E
:1017A00001210FE0042084F85100204631463246E2
:1017B0003B46009500F05EF902B0BDE8F08100BF45
:1017C0002046802100222B46CDF8008000F0BEFD8F
:1017D00028B1606D40F02000606520206065012028
:1017E00084F85100002084F85000606D002818BF74
:1017F000012002B0BDE8F0812DE9F04184B01D4622
:1018000016460F460446FFF7E7FA94F851100129EF
:101810000ED18046002F4FF0010018BF002E03D1DB
:1018200004B0BDE8F08100BF94F85000012803D156
:10183000022004B0BDE8F081012084F850000320AC
:10184000002184F8510061652763A686E686A163BE
:10185000A187E187A0682164B0F5004F206861642A
:1018600007D1016821F040010160016841F4804125
:1018700001600168490603D4016841F0400101603C
:101880006168731EE268B1FA81F1B3FA83F3490922
:101890005B09B2F5006F41EA030139D131B137F884
:1018A000021BC1602763E08E0138E086E08E0028CD
:1018B00070D0681C0BD11AE0216B31F8022BC2608A
:1018C0002163E08E0138E086E08E002862D0206837
:1018D00081688907F0D4FFF77FFAA0EB0800A842DF
:1018E000F2D338E0FFF778FAE08E002852D0206873
:1018F00081688907F6D5216B31F8022BC26021631C
:10190000E08E0138E086E08E0028F0D142E000BF92
:1019100039B139780173206B01302063E08E0138D2
:10192000E086E08EB0B3681C0BD123E0216B097810
:101930000173206B01302063E08E0138E086E08E79
:1019400040B3206881688907F0D4FFF745FAA0EB1F
:101950000800A842F3D3012084F85100002084F845
:101960005000032004B0BDE8F08100BFFFF734FA57
:10197000E08E78B1206881688907F7D5216B0978F6
:101980000173206B01302063E08E0138E086E08E29
:101990000028EFD12046022101222B46CDF80080FD
:1019A00000F0D4FCE0B1606D40F0200060652020C4
:1019B0006065A06838B9002002902068C168029173
:1019C000806802900298012084F85100002084F879
:1019D0005000606D002818BF012004B0BDE8F08100
:1019E00040F22C00C2F20000006849F68171C1F299
:1019F0005E61A0FB0101480D4FF47A7148430390EA
:101A00006068B0F5827F0BD12046802100222B46F2
:101A1000CDF8008000F09AFC0028C4D1C9E700BFCF
:101A200003980028C5D00398013803902068806887
:101A30000006BED503980028BBD003980138039058
:101A4000206880680006B4D503980028B1D00398B8
:101A500001380390206880680006AAD50398002802
:101A6000A7D0039801380390206880680006D7D477
:101A70009FE700002DE9F04383B01E4615460F4650
:101A80000446FFF7A9F994F851108146012909D1BC
:101A9000002F4FF0010018BF002D0FD103B0BDE89B
:101AA000F08300BF6068B0F5827F0DD1A068002888
:101AB0004FF0020008BF0429F0D1E9E7002EEDD075
:101AC00094F85000012803D1022003B0BDE8F08350
:101AD000012084F8500094F85100002104281CBF14
:101AE000052084F851006165A563E687A687276312
:101AF000E6862068A686216461640168490603D4ED
:101B0000016841F0400101606168731EE268B1FA4A
:101B100081F1B3FA83F3DDF8288049095B09B2F556
:101B2000006F41EA030165D131B137F8021BC16092
:101B30002763E08E0138E086012518F1010032D1DB
:101B400002E000BFFFF748F9E08E18B9E08F0028E7
:101B500000F0B8802068816889070CD5E18E51B10A
:101B6000012D08D1216B002531F8022BC2602163C1
:101B7000E18E0139E1868168C907E3D0E18F002950
:101B8000E0D0C068A16B012521F8020BA163E08FB2
:101B90000138E087D6E700BFFFF71EF9A0EB090088
:101BA000404580F0A580E08E18B9E08F002800F055
:101BB00089802068816889070CD5E18E51B1012D9B
:101BC00008D1216B002531F8022BC2602163E18E20
:101BD0000139E1868168C907DED0E18F0029DBD0B9
:101BE000C068A16B012521F8020BA163E08F0138C9
:101BF000E087D1E739B139780173206B0130206378
:101C0000E08E0138E086012518F1010032D101E0B3
:101C1000FFF7E2F8E08E10B9E08F002852D020687C
:101C2000816889070ED5E18E61B1012D0AD1216B42
:101C3000002509780173216B206801312163E18E51
:101C40000139E1868168C907E2D0E18F0029DFD040
:101C5000C068A16B01250870A06B0130A063E08F04
:101C60000138E087D4E700BFFFF7B6F8A0EB090022
:101C700040453DD2E08E08B9E08F18B320688168F6
:101C800089070ED5E18E61B1012D0AD1216B0025A6
:101C900009780173216B206801312163E18E0139DC
:101CA000E1868168C907DFD0E18F0029DCD0C068F8
:101CB000A16B01250870A06B0130A063E08F013893
:101CC000E087D1E72046022101224346CDF800906B
:101CD00000F03CFBB0B1606D40F02000606520205A
:101CE0006065002084F85000012003B0BDE8F08357
:101CF000012084F85100002084F85000032003B034
:101D0000BDE8F08340F22C00C2F20000006849F602
:101D10008171C1F25E61A0FB0101480D4FF47A713F
:101D2000484302906068B0F5827F21D1204680212F
:101D300000224346CDF8009000F008FB0028CAD1ED
:101D4000A06838B9002001902068C16801918068BE
:101D500001900198012084F85100002084F850007F
:101D6000606D002818BF012003B0BDE8F08300BFFC
:101D700002980028E4D00298013802902068806818
:101D80000006DDD502980028DAD0029801380290CA
:101D9000206880680006D3D502980028D0D0029829
:101DA00001380290206880680006C9D50298002892
:101DB000C6D0029801380290206880680006D7D407
:101DC000BEE70000411E0020B0EB116F1CBF0120D8
:101DD00070474EF21002CEF2000251604EF62351CF
:101DE000CEF20001F0230B70072190601160704764
:101DF000704700007047000010B590F83C20012AA1
:101E00004FF0020251D080F83D200268D2F804E081
:101E1000D2F808C00C682EF07003234341F2FF741F
:101E2000C4F20004A24253600EDC40F2FF73C4F21D
:101E300000039A4216DCB2F1804F2BD040F20043EF
:101E4000C4F2000324E000BF40F2FF33C4F20103F8
:101E50009A4213DC41F60003C4F200039A4219D0FF
:101E6000002313E040F60003C4F200039A4211D0AD
:101E700040F60043C4F200030AE000BF44F200034E
:101E8000C4F201039A4205D040F20043C4F20103B8
:101E90009A4204D149682CF08003194391600121D2
:101EA000002280F83D1080F83C20104610BD000054
:101EB000002804BF0120704710B5044690F83D008B
:101EC00028B9002084F83C00204600F01FF80220CA
:101ED00084F83D002068211D00F032FB012084F8C9
:101EE000460084F83E0084F83F0084F8400084F8FF
:101EF000410084F8420084F8430084F8440084F8E8
:101F0000450084F83D00002010BD000080B582B07F
:101F1000006841F20001C4F2000188421CBF02B017
:101F200080BD0020019043F64000C4F20200016829
:101F3000002241F0100101600068002100F0100053
:101F4000019001983620FEF7CBFF362002B0BDE8A5
:101F50008040FEF7B1BF000090F83D1001291CBF82
:101F600001207047022180F83D10006841F2FF72A5
:101F7000C168C4F20002904241F00101C1600DDC71
:101F800040F2FF71C4F20001884215DCB0F1804FCD
:101F90002AD040F20041C4F2000123E040F2FF31B8
:101FA000C4F20101884213DC41F60001C4F20001D1
:101FB000884219D0002113E040F60001C4F200016C
:101FC000884211D040F60041C4F200010AE000BF8F
:101FD00044F20001C4F20101884205D040F2004100
:101FE000C4F20101884206D1816801F00701062987
:101FF00004BF00207047016841F00101016000202A
:10200000704700007047000070B504460068C5685E
:102010000669B10716D515F0020113D06FF0020161
:102020000161012121778069800703D02046FFF7F5
:10203000E9FF05E0204600F08FF8204600F08EF81A
:1020400000202077700719D515F0040016D02068FD
:102050006FF00401016102212177806910F4407F53
:1020600004D02046FFF7CEFF06E000BF204600F078
:1020700073F8204600F072F800202077300717D55B
:1020800015F0080014D020686FF0080101610421E8
:102090002177C069800703D02046FFF7B3FF05E032
:1020A000204600F059F8204600F058F8002020772C
:1020B000F00619D515F0100016D020686FF0100149
:1020C000016108212177C06910F4407F04D02046C7
:1020D000FFF798FF06E000BF204600F03DF82046DD
:1020E00000F03CF800202077F00718BF15F0010041
:1020F00002D1300609D412E020686FF001010161BD
:10210000204600F02DF8300609D515F0800006D0E5
:1021100020686FF0800101612046FFF769FE7006BC
:1021200009D515F0400006D020686FF0400101612C
:10213000204600F035F8B00658BF70BD15F02000FD
:1021400008D021686FF0200220460A61BDE8704087
:10215000FFF750BE70BD00007047000070470000E0
:1021600080B540F2A011C2F20001006809688842FF
:1021700018BF80BD00F016FD40F2201040F298011B
:1021800040F2900240F21C13C2F20000C2F20001C1
:10219000C2F20002C2F20003BDE88040FEF760B95F
:1021A00070470000FEE7000080B540F2201046F2C4
:1021B0000041C2F20000C4F200010722002380E8BF
:1021C0000E0000F10C014FF4803C4FF4001E81E83A
:1021D000085083618383FEF7D3FB002808BF80BDCE
:1021E000BDE88040FEF720B92DE9F04186B0002718
:1021F00043F6300005970097C4F2020001680024FE
:1022000041F0020101600168C4F2020401F0020120
:102210000091009900970168002241F001010160DE
:1022200001684FF0100801F001010091009900973A
:10223000016841F008010160016801F008010091A6
:1022400000990097016841F0800101600068102149
:1022500000F08000009000982046FEF7B7FD04F5DE
:1022600080652846012100220126FEF7AFFDCDE959
:1022700001860DF1040820464146CDE90367FEF7CB
:10228000D1FC28464146CDE90166CDE90367FEF75A
:10229000C9FC06B0BDE8F081B0B540F2481043F289
:1022A0000001C2F20000C4F201014FF48272002367
:1022B00080E80E0000F10C014FF0020C4FF0010E0F
:1022C0004FF40074382581E808500A21C0E906451A
:1022D000C0E90833C0E90A31FFF7E2F8002808BF77
:1022E000B0BDBDE8B040FEF79FB8000080B582B039
:1022F00040F2A01041F200020021C2F20000C4F23C
:10230000000240F2E7334FF0A70CCDE90011C0E91D
:102310000023C0E9021C8161FFF7CAFD002818BF35
:10232000FEF782F840F2A010C2F200006946FFF703
:1023300063FD002818BFFEF777F802B080BD0000EB
:10234000FEE70000FEE70000704700002DE9F043C3
:1023500081B0089C984615460E468146FEF73CFD26
:10236000201A00EB0804FEF737FD40F22C01C2F200
:1023700000010968C1F3CB3161430091D9F8001025
:102380008A683240921BB2FA82F25209AA4203D101
:10239000002001B0BDE8F083074618F101000ED11E
:1023A00030E000BF009801380090D9F80000806844
:1023B0003040801BB0FA80F04009A842E8D0FEF718
:1023C0000BFDC01BA04227D200980028EAD10024B0
:1023D000EBE700BF88683040801BB0FA80F040090E
:1023E000A842D5D088683040801BB0FA80F0400900
:1023F000A842CDD088683040801BB0FA80F04009F8
:10240000A842C5D088683040801BB0FA80F04009EF
:10241000A842DFD1BCE700BFD9E900014268B1F5AD
:10242000827F22F0E00242600BD1D9F80810B1F5AA
:10243000004F02D0B1F5806F03D1016821F0400157
:102440000160D9F82810B1F5005F07D1016821F4C7
:1024500000510160016841F400510160012089F8D8
:102460005100002089F85000032001B0BDE8F0833E
:1024700070470000FEF7B6BCB0B592B0002443F63A
:102480004000CDE90A44CDE908440594CDE9034470
:10249000CDE901440094C4F202000168022541F034
:1024A00080510160006800F080500090009847F271
:1024B00000000094C4F20000016841F48041016012
:1024C000006800F4804000900098012006904FF4CE
:1024D000803007904FF480000D9006200E90A820C9
:1024E000CDE90F050420119006A80C95FEF71AFE01
:1024F00010B172B6FEE700BF0F20CDE901054FF421
:10250000A05004904FF48050059001A80521039439
:10251000FEF722FD10B172B6FEE700BF12B0B0BDEB
:102520004EF68850CEF20000016841F4700101605F
:102530007047000040F2A010C2F20000FFF764BD37
:10254000B0B540F6FF3E0568C4F2000E40F2004C04
:102550007045C4F2010C27DCB0F1804F31D040F25D
:102560000043C4F2000398422BD040F60003C4F2AB
:102570000003984225D041F6FF73C4F2000398424D
:102580002ADC70453CDCB0F1804F5FD040F2004364
:10259000C4F20003984259D040F60003C4F200038D
:1025A000984253D057E000BF40F60043C4F2000306
:1025B000984206D0604504D00023C4F2010398423B
:1025C000D9D14B6825F0700243EA020541F6FF734A
:1025D000C4F200039842D4DD43F6FF73C4F2010352
:1025E000984221DC42F20003C4F2000398422DD04D
:1025F0000023C4F20103984228D0604526D02AE087
:1026000040F60043C4F2000398421FD041F6000395
:10261000C4F20003984219D041F60043C4F200030B
:10262000984213D017E000BF44F20003C4F2010344
:1026300098420BD044F60003C4F20103984205D03F
:1026400044F20043C4F20103984204D1CB6825F45C
:10265000407243EA02050A688C684B69C46240F420
:1026600080648262644504BF09690163026825F0E1
:10267000800142F0040219430260012242610160BC
:10268000B0BD0000FEE7000070B52DED068B82B0F6
:102690000DF1050504461320294600F081F901AE2D
:1026A0001220314600F07CF99DF805009DF80410D9
:1026B00041EA002020801520294600F071F91420FD
:1026C000314600F06DF99DF805009DF8041041EACF
:1026D000002060801720294600F062F9162031465C
:1026E00000F05EF99DF805009DF80410B4F9022091
:1026F00041EA002001B2A080B4F900009FED621A07
:1027000000EE100A02EE102A03EE101AB8EEC00A0C
:10271000B8EEC22AB8EEC33A0DF1070520EE010A61
:1027200022EE012A23EE011A0320294684ED030A32
:1027300084ED042A84ED051A00F080F90DF10606F7
:102740000220314600F07AF99DF807009DF8061046
:1027500041EA0020E0800520294600F06FF90420BE
:10276000314600F06BF99DF807009DF8061041EA2C
:10277000002020810720294600F060F9062031461C
:1027800000F05CF99DF807009DF80610B4F90820E8
:1027900041EA002001B26081B4F906009FED3B1AC6
:1027A00000EE100A02EE102A03EE101AB8EEC00A6C
:1027B000B8EEC22AB8EEC33A20EE010A22EE012A90
:1027C00023EE011A94ED0D3A94ED0A6A84ED072A7E
:1027D00022EE032A32EE062A94ED095A84ED0A2AE3
:1027E00094ED0B2A84ED060A84ED081A20EE034AC4
:1027F00094ED040AD4ED050A21EE031A34EE054ADD
:1028000031EE021A84ED094A84ED0B1A00F02AFA1F
:102810009FED1F8A9FED1F9A20EE080A80EE09AAFD
:1028200094ED050A94ED041A20EE000A21EE011A37
:1028300031EE000AF1EEC00A94ED030AB1EE400A4F
:1028400000F010FA20EE080A80EE090A94ED0C3A26
:1028500094ED091A94ED0A2AB7EE004A34EE434A81
:102860002AEE045A23EE011A23EE022A31EE051A4B
:1028700084ED091A24EE000A32EE000A84ED0A0AF9
:1028800002B0BDEC068B70BD5873803A6C09793B81
:102890000000344387164940B0B52DED028B0C463D
:1028A00009889FED391A49BA00EE101AB8EEC00A2D
:1028B00020EE010A80EE018A90ED040A9FED332A92
:1028C0009FED333A90ED001A054638EE400A30EE9F
:1028D000022AB4EE430A9FED303AF1EE10FAC8BF77
:1028E000B0EE420A9FED2B2AB4EE430A30EE022AE4
:1028F000F1EE10FAB8BFB0EE420A80EE011A90ED88
:10290000012A80ED050A80ED038A32EE010A80ED8E
:10291000021A80ED010A60889FED201A40BA00EE8D
:10292000100AB8EEC00A80EE010A10EE100A00F09C
:1029300085FD9FED110B53EC102B00F027FB9FED55
:10294000100B53EC102B00F07BFC00F0EDFAA861AB
:10295000A08840BA00EE100AB8EEC00A85ED070A5A
:10296000A07985ED048A00EE100AB8EE400A85EDE4
:10297000080ABDEC028BB0BD6E861BF0F921094040
:10298000000000000080664000007F430000B4C3E8
:10299000000034430000B443000034C30000704220
:1029A00070B582B00024C4F202040D46064604F558
:1029B000806001210122FEF709FA20461021002241
:1029C000FEF704FA46F0800040F24816C2F2000614
:1029D0008DF807000DF10701304601224FF47A739C
:1029E000FEF70AFF3046FEF757FD0328FAD040F203
:1029F0004816C2F200063046294601224FF47A7387
:102A0000FEF7FAFD3046FEF747FD0428FAD040F203
:102A10004816C2F200063046294601224FF47A7366
:102A2000FEF7EAFD3046FEF737FD0428FAD02046CF
:102A300010210122FEF7CAF902B070BD70B582B054
:102A400040F20044C4F202040D460646A4F580603C
:102A500010210122FEF7BAF9204601210022FEF7DB
:102A6000B5F946F0800040F24816C2F200068DF833
:102A700007000DF10701304601224FF47A73FEF78B
:102A8000BBFE00BF3046FEF707FD0328FAD040F238
:102A90004816C2F200063046294601224FF47A73E6
:102AA000FEF7AAFD3046FEF7F7FC0428FAD02046D0
:102AB00001210122FEF78AF902B070BD70B582B023
:102AC0000024C4F20204204610210022FEF77EF901
:102AD00040F248154BF27E60C2F20005ADF80200EC
:102AE0000DF10201284602224FF47A73FEF784FEAC
:102AF0000120FEF783F8204610210122FEF766F937
:102B000004F58066304601210022FEF75FF94BF2A2
:102B10001460ADF8040001A9284602224FF47A732C
:102B2000FEF76AFE1E20FEF769F8304601210122F9
:102B3000FEF74CF9204610210022FEF747F901204C
:102B4000FEF75CF840F27D40ADF806000DF106019D
:102B5000284602224FF47A73FEF74EFE0120FEF75C
:102B60004DF8204610210122FEF730F902B070BD69
:102B7000002818BF002901D1704700BF002A08BFF4
:102B8000704740F2300CC2F2000CDCF824300360D5
:102B9000DCF828000860DCF82C00106070470000AA
:102BA000FFF78CBF40F23000C2F20000FFF76CBDAF
:102BB000FEF726F9FFF760FCFFF716FBFFF76CFB4B
:102BC000FFF794FBFFF7F0FA00F00CF840F2A010CA
:102BD000C2F20000FFF7C0F900F022F86420FEF70F
:102BE0000DF8F9E710B5FFF7DBFF40F22014C2F251
:102BF000000440F26801C2F200012046FDF784FCA7
:102C00002046FDF7BFFF20460221FDF711FC40F2F0
:102C1000A010C2F20000BDE81040FFF79DB900000F
:102C200040F2141040F2101140F21812C2F20000EB
:102C3000C2F20001C2F20002FFF79ABF410008028F
:102C400018BF04200A0E18BF40F001004FF07F4269
:102C500032EA010108BF40F00200012808BF052048
:102C60007047000070B54FF068422DED048BF0EE18
:102C7000408A18EE900AB0EE608A18EE101A02EB45
:102C80004003B3F1654F3CBF02EB4102B2F1654F27
:102C90007DD200BFC0F3C753C1F3C7529A1A1B2A93
:102CA00009DD10F0004F14BF9FED830A9FED830AEA
:102CB000BDEC048B70BD12F11A0F36DA11F0004F23
:102CC00009D010F0004F0CBF9FED7D0A9FED7D0AEB
:102CD000BDEC048B70BD88EE889A19EE100AFFF7E0
:102CE000ADFF042808BF00F017F918EE900AFFF7AF
:102CF000A5FF054618EE100AFFF7A0FF044619EEDF
:102D0000100AFFF79BFF042D18BF052D08D1042CD6
:102D100018BF052C04D1002804BF0220FDF724FBB6
:102D2000B0EE490ABDEC048B70BD4200B2EB410F1E
:102D30003AD910F0004F19BFDFED630A9FED630A27
:102D4000DFED630A9FED630AB0EE481A0A46B1EE62
:102D5000688A80F00041F0EE418A10460A1A52005B
:102D6000B2F1807F34D2484010F0004FDFED5A1AA4
:102D70009FED5A2A1DBFBEEE001A70EEE10A30EE3A
:102D8000420AB6EE001A08BF70EEA10A00E040E069
:102D900008BF30EE020AB0EE682A01EE482A08EEBB
:102DA000818AC2EE081A15E011F0004F04BF9FEDB2
:102DB0004C0AF0EE400AD1D010F0004F19BFDFED01
:102DC000490A9FED490ADFED490A9FED490AC5E727
:102DD000C8EE881A21EEA11A9FED462ADFED462A99
:102DE00041EE022A9FED452A01EE222ADFED442A18
:102DF00041EE022A9FED432ABDEC048B01EE222A0C
:102E000021EE811A01EE020A30EE210A30EE200A8C
:102E100070BD4FF07F42B2EB400F28BFB2EB410FC5
:102E200009D2F0EE480AB0EE680ABDEC048BBDE8AA
:102E3000704000F06DB840EA01035B0008BF41F04C
:102E4000FF410BD0B2EB400F08BFB2EB410F08D1EE
:102E500020F0804008EE900A21F0804108EE101A20
:102E600018E7B2EB400F12BF5FEA410340F0FF40AA
:102E700001F000413FF40EAFB2EB410F12BF5FEA29
:102E8000400200F0004041F0FF413FF403AF4A0030
:102E900092EA40033FF5FEAE002AACBF9FED1A0A4E
:102EA0009FED1A0A68EE808A28EE008A18EE900AD2
:102EB00018EE101AEEE60000DB0FC9BFDB0FC93FAA
:102EC000DB0F4940DB0F49C00000C9BF22AAFDB992
:102ED0000000C93F22AAFD390060ED3EC30ACE378B
:102EE00000000000000049C022AA7DBA000049404D
:102EF00022AA7D3A2DAD65BD8FB8D53D0FB511BE67
:102F000061C84C3EA8AAAABE0000804F0000802FD6
:102F100030EE200A704700009FED020A20EE000A02
:102F2000704700000000001021F0004201F0004353
:102F3000A2F16052B2F5801F28BFD2F17F6C0BD98D
:102F40005FEA001C43EAC20242EB507018BF7047B0
:102F500028BF20F001007047B2F5801FBCBF1846A3
:102F600070474FEA410C1CF5001F02D2084600F0E2
:102F7000E3BA70B500F00EFA00000089FFF7F6BF63
:102F80004FF00040A0F58000704700002DE9C041DF
:102F900030B4DFF8A4C23CEA111418BF3CEA1314A1
:102FA00000F0ED801CEA111481EA030544EAD574AF
:102FB00018BF1CEA131500F0C880A4EB050404F147
:102FC0007F7404F500344FF0004545EAC12145EA1D
:102FD000C32341EA505143EA52534FEAC0204FEA1B
:102FE000C222994208BF904200F09D804FEA1365CB
:102FF0000FF24416765D4FEA134506FB05F7C7F15D
:10300000807706FB07F74FEAD737A7FB03687642BE
:10301000A7FB06CEC8F5803838BFA8F1010807FB2A
:1030200008E6A6FB028C4FF0000EE6FB03CEDCF1B7
:10303000000CCEF1004E38BFAEF1010EA6FB0C58CD
:103040004FF00007E6FB0E87A1FB08C6A0FB07CEEA
:1030500016EB0E064FF0000545F10005E1FB076594
:1030600015F1E04E7EBFA4F580345FEA46066D415F
:1030700016F1800745F100054FEA172747EA056773
:103080004FEA15254FEA0666A6F1DE46B6F1805FE7
:1030900020D9384605EBC47124F0010C01EB0C116A
:1030A000BCF1FE6F02D8F0BCBDE8008124425CBFD9
:1030B00001F5801E9EEAC47F02D4F0BCBDE8008109
:1030C000244200F13980A1F1C041F0BCBDE80041CB
:1030D00000F0AEB94FEAD02040EA41504FEAD1218A
:1030E0004FEAD22242EA43524FEAD323A7FB028699
:1030F00007FB036605FB02661EEA0E0F58BFA6EB30
:103100000056B6EB00564FEA520E4EEAC37E18EB5D
:103110000E0E56EB530EBCD518EB02085E417F1C19
:1031200055F10005B5E74FF480154FF000074FF05B
:1031300000064FF00008ACE701F1C04101F000418A
:103140004FF00000F0BCBDE800810CEA131511EA55
:103150000C1F00D00CE013EA0C1F00F026804FF08B
:10316000000081EA030101F00041F0BCBDE80081EC
:10317000F0BCBDE8004181EA030100F059B9F0BCA0
:10318000BDE8004170B500F005F900BF097EFC3EC6
:1031900000F007B84FF0000081EA030101F00041A0
:1031A000704781EA030100F043B9F0BCBDE800417B
:1031B00022494FF000007047FFFDFBF9F7F5F4F2EC
:1031C000F0EEEDEBE9E8E6E4E3E1E0DEDDDBDAD8C2
:1031D000D7D5D4D3D1D0CFCDCCCBCAC8C7C6C5C420
:1031E000C2C1C0BFBEBDBCBBBAB9B8B7B6B5B4B337
:1031F000B2B1B0AFAEADACABAAA9A8A8A7A6A5A422
:10320000A3A3A2A1A09F9F9E9D9C9C9B9A999998E5
:103210009797969595949393929191908F8F8E8E88
:103220008D8C8C8B8B8A8989888887878685858415
:1032300084838382828181800000FF070000F87F01
:1032400070B5DFF848C11CEA111E1EBF1CEA131539
:103250009EEA0C0F95EA0C0F00F06F8081EA0304E0
:103260004EEAD47EAE4421EA4C1123EA4C1341F4D9
:10327000801143F48013AEF17F7EA1FB024CA0FBD2
:103280000365361955EB0C05A1FB034C4CF100030B
:10329000A0FB021C16EB0C06654153F1000309422A
:1032A00018BF46F0010613F4007F0BD14FEA03313B
:1032B0004FEA053041EA155140EA165034036FF0E9
:1032C00003020AE04FEAC3214FEAC52041EA555103
:1032D00040EA5650F4026FF0020202EB2E4201EB7C
:1032E000025585EACE710AD05FEA440C18BF24F07B
:1032F000004450F1000041F1000120EAD47040F296
:10330000FE7C624500D270BDA84214BF4FF08044DD
:103310004FF04044002E08BF0024BEF1806FA8BFCC
:10332000A1F1C041BDE8704080F2828001F1C0414E
:1033300001F000414FF0000070470CEA13159EEABF
:103340000C0F18BF95EA0C0F06D081EA030E4FF060
:1033500000000EF0004170BD00F01CF88900013E35
:1033600000F007B800F009B84FEA430C5FEA5C5C74
:1033700008D081EA030100F05BB84FEA410C5FEA34
:103380005C5CF6D102494FF0000070470000FF0777
:103390000000F87F0EF1020E2EF0030E5EF8046BB3
:1033A000364205D4012A43EB030515F5001F12D858
:1033B000012841EB010C1CF5001F0CD80ED14FEA7F
:1033C000D17C0CEB4C0C0CF1020C15F5001F08BF66
:1033D0004CEBD37C04E04FF0080C01E04FEAD37CC7
:1033E0000CEB4C0526FA05F606F00706B6F1040CC0
:1033F00006D20EEB860CBDE870404CF0010C604725
:10340000DFE80CF0090B02024FF00041A1F50021AA
:103410004FF0000070BD19461046012851EB010421
:1034200018BFD4F5001484BF002001F0004170BD26
:103430000808A0F500114FEA3101704743004FEA38
:10344000D30C4FEA3C0C43401FBF40070CF16051C6
:1034500013F0FE4F70471CF0006F03D10CF00041D9
:10346000002070470CF0004343EA507040EACC0063
:1034700010B500F00EF800BF000000924FEA000106
:10348000FFF7D6BF4FF00041A1F500214FF000003B
:1034900070470EF1020E2EF0030E5EF8044B24422C
:1034A00004D44FEA4102B2F17F4F11D84FEA4003F2
:1034B000B3F17F4F0CD80ED14FEAD07C0CEB4C0C03
:1034C0000CF1020CB2F17F4F08BF4CEBD17C04E051
:1034D0004FF0080C01E04FEAD17C0CEB4C0324FACE
:1034E00003F404F00704B4F1040C06D20EEB840CD0
:1034F000BDE810404CF0010C6047DFE80CF0070815
:1035000002024FF00040A0F5800010BD08464200C6
:1035100018BFD2F1807288BF00F0004010BDF1EEFC
:10352000100A4FF6FF71C0F2C03120EA010040F0EE
:103530004070E1EE100A7047FF2141EAD050C0050B
:1035400070470000000000000000010203040607AD
:10355000080900007835000800000020B0000000D5
:10356000C401000828360008B000002060070000F1
:10357000E001000800000000010000001000000051
:103580000000984100000000000000000000000062
:10359000000000000000000000000000000000002B
:1035A000000000000024F400000000000000000003
:1035B000000000000000000000000000000000000B
:1035C00000000000000000000000000000000000FB
:1035D000000000000000000048E17A3F0AD7233CC9
:1035E00000000000000000000000000000000000DB
:1035F00000000000000000000000000001000000CA
:10360000010000000000000000C0000000000000F9
:1036100000020000000000000000000000000000A8
:0836200008000000000000009A
:040000050800018965
:00000001FF
